{
  "contractName": "Auth",
  "abi": [
    {
      "inputs": [],
      "stateMutability": "nonpayable",
      "type": "constructor"
    },
    {
      "anonymous": false,
      "inputs": [
        {
          "indexed": true,
          "internalType": "address",
          "name": "previousOwner",
          "type": "address"
        },
        {
          "indexed": true,
          "internalType": "address",
          "name": "newOwner",
          "type": "address"
        }
      ],
      "name": "OwnershipTransferred",
      "type": "event"
    },
    {
      "inputs": [],
      "name": "owner",
      "outputs": [
        {
          "internalType": "address",
          "name": "",
          "type": "address"
        }
      ],
      "stateMutability": "view",
      "type": "function"
    },
    {
      "inputs": [],
      "name": "renounceOwnership",
      "outputs": [],
      "stateMutability": "nonpayable",
      "type": "function"
    },
    {
      "inputs": [
        {
          "internalType": "address",
          "name": "adr",
          "type": "address"
        }
      ],
      "name": "isAuthorized",
      "outputs": [
        {
          "internalType": "bool",
          "name": "",
          "type": "bool"
        }
      ],
      "stateMutability": "view",
      "type": "function"
    },
    {
      "inputs": [
        {
          "internalType": "address",
          "name": "adr",
          "type": "address"
        }
      ],
      "name": "authorize",
      "outputs": [],
      "stateMutability": "nonpayable",
      "type": "function"
    },
    {
      "inputs": [
        {
          "internalType": "address",
          "name": "adr",
          "type": "address"
        }
      ],
      "name": "unauthorize",
      "outputs": [],
      "stateMutability": "nonpayable",
      "type": "function"
    },
    {
      "inputs": [
        {
          "internalType": "address",
          "name": "newOwner",
          "type": "address"
        }
      ],
      "name": "transferOwnership",
      "outputs": [],
      "stateMutability": "nonpayable",
      "type": "function"
    }
  ],
  "bytecode": "0x608060405234801561001057600080fd5b5061002d61002261008960201b60201c565b61009160201b60201c565b60018060003373ffffffffffffffffffffffffffffffffffffffff1673ffffffffffffffffffffffffffffffffffffffff16815260200190815260200160002060006101000a81548160ff021916908315150217905550610155565b600033905090565b60008060009054906101000a900473ffffffffffffffffffffffffffffffffffffffff169050816000806101000a81548173ffffffffffffffffffffffffffffffffffffffff021916908373ffffffffffffffffffffffffffffffffffffffff1602179055508173ffffffffffffffffffffffffffffffffffffffff168173ffffffffffffffffffffffffffffffffffffffff167f8be0079c531659141344cd1fd0a4f28419497f9722a3daafe3b4186f6b6457e060405160405180910390a35050565b610817806101646000396000f3fe608060405234801561001057600080fd5b50600436106100625760003560e01c8063715018a6146100675780638da5cb5b14610071578063b6a5d7de1461008f578063f0b37c04146100ab578063f2fde38b146100c7578063fe9fbb80146100e3575b600080fd5b61006f610113565b005b61007961019b565b6040516100869190610688565b60405180910390f35b6100a960048036038101906100a491906105f7565b6101c4565b005b6100c560048036038101906100c091906105f7565b61029a565b005b6100e160048036038101906100dc91906105f7565b610371565b005b6100fd60048036038101906100f891906105f7565b6104c0565b60405161010a91906106a3565b60405180910390f35b61011b610516565b73ffffffffffffffffffffffffffffffffffffffff1661013961019b565b73ffffffffffffffffffffffffffffffffffffffff161461018f576040517f08c379a0000000000000000000000000000000000000000000000000000000008152600401610186906106de565b60405180910390fd5b610199600061051e565b565b60008060009054906101000a900473ffffffffffffffffffffffffffffffffffffffff16905090565b6101cc610516565b73ffffffffffffffffffffffffffffffffffffffff166101ea61019b565b73ffffffffffffffffffffffffffffffffffffffff1614610240576040517f08c379a0000000000000000000000000000000000000000000000000000000008152600401610237906106de565b60405180910390fd5b60018060008373ffffffffffffffffffffffffffffffffffffffff1673ffffffffffffffffffffffffffffffffffffffff16815260200190815260200160002060006101000a81548160ff02191690831515021790555050565b6102a2610516565b73ffffffffffffffffffffffffffffffffffffffff166102c061019b565b73ffffffffffffffffffffffffffffffffffffffff1614610316576040517f08c379a000000000000000000000000000000000000000000000000000000000815260040161030d906106de565b60405180910390fd5b6000600160008373ffffffffffffffffffffffffffffffffffffffff1673ffffffffffffffffffffffffffffffffffffffff16815260200190815260200160002060006101000a81548160ff02191690831515021790555050565b610379610516565b73ffffffffffffffffffffffffffffffffffffffff1661039761019b565b73ffffffffffffffffffffffffffffffffffffffff16146103ed576040517f08c379a00000000000000000000000000000000000000000000000000000000081526004016103e4906106de565b60405180910390fd5b600073ffffffffffffffffffffffffffffffffffffffff168173ffffffffffffffffffffffffffffffffffffffff16141561045d576040517f08c379a0000000000000000000000000000000000000000000000000000000008152600401610454906106be565b60405180910390fd5b60018060008373ffffffffffffffffffffffffffffffffffffffff1673ffffffffffffffffffffffffffffffffffffffff16815260200190815260200160002060006101000a81548160ff0219169083151502179055506104bd8161051e565b50565b6000600160008373ffffffffffffffffffffffffffffffffffffffff1673ffffffffffffffffffffffffffffffffffffffff16815260200190815260200160002060009054906101000a900460ff169050919050565b600033905090565b60008060009054906101000a900473ffffffffffffffffffffffffffffffffffffffff169050816000806101000a81548173ffffffffffffffffffffffffffffffffffffffff021916908373ffffffffffffffffffffffffffffffffffffffff1602179055508173ffffffffffffffffffffffffffffffffffffffff168173ffffffffffffffffffffffffffffffffffffffff167f8be0079c531659141344cd1fd0a4f28419497f9722a3daafe3b4186f6b6457e060405160405180910390a35050565b6000813590506105f1816107ca565b92915050565b60006020828403121561060d5761060c61074d565b5b600061061b848285016105e2565b91505092915050565b61062d8161070f565b82525050565b61063c81610721565b82525050565b600061064f6026836106fe565b915061065a82610752565b604082019050919050565b60006106726020836106fe565b915061067d826107a1565b602082019050919050565b600060208201905061069d6000830184610624565b92915050565b60006020820190506106b86000830184610633565b92915050565b600060208201905081810360008301526106d781610642565b9050919050565b600060208201905081810360008301526106f781610665565b9050919050565b600082825260208201905092915050565b600061071a8261072d565b9050919050565b60008115159050919050565b600073ffffffffffffffffffffffffffffffffffffffff82169050919050565b600080fd5b7f4f776e61626c653a206e6577206f776e657220697320746865207a65726f206160008201527f6464726573730000000000000000000000000000000000000000000000000000602082015250565b7f4f776e61626c653a2063616c6c6572206973206e6f7420746865206f776e6572600082015250565b6107d38161070f565b81146107de57600080fd5b5056fea2646970667358221220ad03461d52cc42d16f177b416d97653af17521ed0f2137a1e0040f8b2af3b0ed64736f6c63430008070033",
  "immutableReferences": {},
  "source": "// SPDX-License-Identifier: MIT\r\npragma solidity ^0.8.7;\r\n\r\nimport \"@openzeppelin/contracts/access/Ownable.sol\";\r\n\r\ncontract Auth is Ownable {\r\n    mapping (address => bool) internal authorizations;\r\n\r\n    constructor() {\r\n        authorizations[msg.sender] = true;\r\n    }\r\n\r\n    /**\r\n     * Return address' authorization status\r\n     */\r\n    function isAuthorized(address adr) public view returns (bool) {\r\n        return authorizations[adr];\r\n    }\r\n\r\n    /**\r\n     * Authorize address. Owner only\r\n     */\r\n    function authorize(address adr) public onlyOwner {\r\n        authorizations[adr] = true;\r\n    }\r\n\r\n    /**\r\n     * Remove address' authorization. Owner only\r\n     */\r\n    function unauthorize(address adr) public onlyOwner {\r\n        authorizations[adr] = false;\r\n    }\r\n\r\n    /**\r\n     * @dev Transfers ownership of the contract to a new account (`newOwner`).\r\n     * Can only be called by the current owner.\r\n     */\r\n    function transferOwnership(address newOwner) public override onlyOwner {\r\n        require(newOwner != address(0), \"Ownable: new owner is the zero address\");\r\n        authorizations[newOwner] = true;\r\n        _transferOwnership(newOwner);\r\n    }\r\n\r\n    /** ======= MODIFIERS ======= */\r\n\r\n    /**\r\n     * Function modifier to require caller to be authorized\r\n     */\r\n    modifier authorized() {\r\n        require(isAuthorized(msg.sender), \"!AUTHORIZED\"); _;\r\n    }\r\n}",
  "sourcePath": "G:\\Projects\\KavanSmartContract\\contracts\\helpers\\Auth.sol",
  "compiler": {
    "name": "solc",
    "version": "0.8.7+commit.e28d00a7.Emscripten.clang"
  },
  "schemaVersion": "3.4.4",
  "updatedAt": "2022-02-01T11:55:22.327Z",
  "devdoc": {
    "kind": "dev",
    "methods": {
      "owner()": {
        "details": "Returns the address of the current owner."
      },
      "renounceOwnership()": {
        "details": "Leaves the contract without owner. It will not be possible to call `onlyOwner` functions anymore. Can only be called by the current owner. NOTE: Renouncing ownership will leave the contract without an owner, thereby removing any functionality that is only available to the owner."
      },
      "transferOwnership(address)": {
        "details": "Transfers ownership of the contract to a new account (`newOwner`). Can only be called by the current owner."
      }
    },
    "version": 1
  },
  "userdoc": {
    "kind": "user",
    "methods": {
      "authorize(address)": {
        "notice": "Authorize address. Owner only"
      },
      "isAuthorized(address)": {
        "notice": "Return address' authorization status"
      },
      "unauthorize(address)": {
        "notice": "Remove address' authorization. Owner only"
      }
    },
    "version": 1
  }
}