{
  "contractName": "DividendDistributor",
  "abi": [
    {
      "inputs": [
        {
          "internalType": "address",
          "name": "_router",
          "type": "address"
        }
      ],
      "stateMutability": "nonpayable",
      "type": "constructor"
    },
    {
      "inputs": [],
      "name": "dividendsPerShare",
      "outputs": [
        {
          "internalType": "uint256",
          "name": "",
          "type": "uint256"
        }
      ],
      "stateMutability": "view",
      "type": "function",
      "constant": true
    },
    {
      "inputs": [],
      "name": "dividendsPerShareAccuracyFactor",
      "outputs": [
        {
          "internalType": "uint256",
          "name": "",
          "type": "uint256"
        }
      ],
      "stateMutability": "view",
      "type": "function",
      "constant": true
    },
    {
      "inputs": [],
      "name": "minDistribution",
      "outputs": [
        {
          "internalType": "uint256",
          "name": "",
          "type": "uint256"
        }
      ],
      "stateMutability": "view",
      "type": "function",
      "constant": true
    },
    {
      "inputs": [],
      "name": "minPeriod",
      "outputs": [
        {
          "internalType": "uint256",
          "name": "",
          "type": "uint256"
        }
      ],
      "stateMutability": "view",
      "type": "function",
      "constant": true
    },
    {
      "inputs": [
        {
          "internalType": "address",
          "name": "",
          "type": "address"
        }
      ],
      "name": "shares",
      "outputs": [
        {
          "internalType": "uint256",
          "name": "amount",
          "type": "uint256"
        },
        {
          "internalType": "uint256",
          "name": "totalExcluded",
          "type": "uint256"
        },
        {
          "internalType": "uint256",
          "name": "totalRealised",
          "type": "uint256"
        }
      ],
      "stateMutability": "view",
      "type": "function",
      "constant": true
    },
    {
      "inputs": [],
      "name": "totalDistributed",
      "outputs": [
        {
          "internalType": "uint256",
          "name": "",
          "type": "uint256"
        }
      ],
      "stateMutability": "view",
      "type": "function",
      "constant": true
    },
    {
      "inputs": [],
      "name": "totalDividends",
      "outputs": [
        {
          "internalType": "uint256",
          "name": "",
          "type": "uint256"
        }
      ],
      "stateMutability": "view",
      "type": "function",
      "constant": true
    },
    {
      "inputs": [],
      "name": "totalShares",
      "outputs": [
        {
          "internalType": "uint256",
          "name": "",
          "type": "uint256"
        }
      ],
      "stateMutability": "view",
      "type": "function",
      "constant": true
    },
    {
      "inputs": [],
      "name": "claimDividend",
      "outputs": [],
      "stateMutability": "nonpayable",
      "type": "function"
    },
    {
      "inputs": [
        {
          "internalType": "uint256",
          "name": "_minPeriod",
          "type": "uint256"
        },
        {
          "internalType": "uint256",
          "name": "_minDistribution",
          "type": "uint256"
        }
      ],
      "name": "setDistributionCriteria",
      "outputs": [],
      "stateMutability": "nonpayable",
      "type": "function"
    },
    {
      "inputs": [
        {
          "internalType": "address",
          "name": "shareholder",
          "type": "address"
        },
        {
          "internalType": "uint256",
          "name": "amount",
          "type": "uint256"
        }
      ],
      "name": "setShare",
      "outputs": [],
      "stateMutability": "nonpayable",
      "type": "function"
    },
    {
      "inputs": [],
      "name": "deposit",
      "outputs": [],
      "stateMutability": "payable",
      "type": "function",
      "payable": true
    },
    {
      "inputs": [
        {
          "internalType": "uint256",
          "name": "_gas",
          "type": "uint256"
        }
      ],
      "name": "process",
      "outputs": [],
      "stateMutability": "nonpayable",
      "type": "function"
    },
    {
      "inputs": [
        {
          "internalType": "address",
          "name": "_shareholder",
          "type": "address"
        }
      ],
      "name": "getUnpaidEarnings",
      "outputs": [
        {
          "internalType": "uint256",
          "name": "",
          "type": "uint256"
        }
      ],
      "stateMutability": "view",
      "type": "function",
      "constant": true
    }
  ],
  "bytecode": "0x60806040527382f0b8b456c1a451378467398982d4834b6829c1600160006101000a81548173ffffffffffffffffffffffffffffffffffffffff021916908373ffffffffffffffffffffffffffffffffffffffff1602179055507321be370d5312f44cb42ce377bc9b8a0cef1a4c83600260006101000a81548173ffffffffffffffffffffffffffffffffffffffff021916908373ffffffffffffffffffffffffffffffffffffffff1602179055506ec097ce7bc90715b34b9f1000000000600c556001600d55678ac7230489e80000600e55348015620000df57600080fd5b5060405162001d4838038062001d48833981810160405281019062000105919062000217565b600073ffffffffffffffffffffffffffffffffffffffff168173ffffffffffffffffffffffffffffffffffffffff16141562000178576040517f08c379a00000000000000000000000000000000000000000000000000000000081526004016200016f9062000270565b60405180910390fd5b80600360006101000a81548173ffffffffffffffffffffffffffffffffffffffff021916908373ffffffffffffffffffffffffffffffffffffffff160217905550336000806101000a81548173ffffffffffffffffffffffffffffffffffffffff021916908373ffffffffffffffffffffffffffffffffffffffff160217905550506200031f565b600081519050620002118162000305565b92915050565b60006020828403121562000230576200022f620002d7565b5b6000620002408482850162000200565b91505092915050565b60006200025860178362000292565b91506200026582620002dc565b602082019050919050565b600060208201905081810360008301526200028b8162000249565b9050919050565b600082825260208201905092915050565b6000620002b082620002b7565b9050919050565b600073ffffffffffffffffffffffffffffffffffffffff82169050919050565b600080fd5b7f5f726f75746572206973207a65726f2061646472657373000000000000000000600082015250565b6200031081620002a3565b81146200031c57600080fd5b50565b611a19806200032f6000396000f3fe6080604052600436106100dd5760003560e01c8063ce7c2ac21161007f578063efca2eed11610059578063efca2eed14610291578063f0fc6bca146102bc578063ffb2c479146102d3578063ffd49c84146102fc576100dd565b8063ce7c2ac21461021d578063d0e30db01461025c578063e2d2e21914610266576100dd565b80632d48e896116100bb5780632d48e896146101735780633a98ef391461019c5780634fab0ae8146101c7578063997664d7146101f2576100dd565b806311ce023d146100e257806314b6ca961461010d57806328fd319814610136575b600080fd5b3480156100ee57600080fd5b506100f7610327565b604051610104919061166b565b60405180910390f35b34801561011957600080fd5b50610134600480360381019061012f9190611422565b61032d565b005b34801561014257600080fd5b5061015d600480360381019061015891906113f5565b6105ec565b60405161016a919061166b565b60405180910390f35b34801561017f57600080fd5b5061019a600480360381019061019591906114e9565b610706565b005b3480156101a857600080fd5b506101b1610770565b6040516101be919061166b565b60405180910390f35b3480156101d357600080fd5b506101dc610776565b6040516101e9919061166b565b60405180910390f35b3480156101fe57600080fd5b5061020761077c565b604051610214919061166b565b60405180910390f35b34801561022957600080fd5b50610244600480360381019061023f91906113f5565b610782565b60405161025393929190611686565b60405180910390f35b6102646107ac565b005b34801561027257600080fd5b5061027b610b9c565b604051610288919061166b565b60405180910390f35b34801561029d57600080fd5b506102a6610ba2565b6040516102b3919061166b565b60405180910390f35b3480156102c857600080fd5b506102d1610ba8565b005b3480156102df57600080fd5b506102fa60048036038101906102f5919061148f565b610bb3565b005b34801561030857600080fd5b50610311610d47565b60405161031e919061166b565b60405180910390f35b600c5481565b60008054906101000a900473ffffffffffffffffffffffffffffffffffffffff1673ffffffffffffffffffffffffffffffffffffffff163373ffffffffffffffffffffffffffffffffffffffff161461038557600080fd5b6000600760008473ffffffffffffffffffffffffffffffffffffffff1673ffffffffffffffffffffffffffffffffffffffff1681526020019081526020016000206000015411156103da576103d982610d4d565b5b60008111801561042c57506000600760008473ffffffffffffffffffffffffffffffffffffffff1673ffffffffffffffffffffffffffffffffffffffff16815260200190815260200160002060000154145b1561043f5761043a82610ff4565b6104a1565b60008114801561049157506000600760008473ffffffffffffffffffffffffffffffffffffffff1673ffffffffffffffffffffffffffffffffffffffff16815260200190815260200160002060000154115b156104a05761049f826110a3565b5b5b61050a816104fc600760008673ffffffffffffffffffffffffffffffffffffffff1673ffffffffffffffffffffffffffffffffffffffff168152602001908152602001600020600001546008546112aa90919063ffffffff16565b6112c090919063ffffffff16565b60088190555080600760008473ffffffffffffffffffffffffffffffffffffffff1673ffffffffffffffffffffffffffffffffffffffff168152602001908152602001600020600001819055506105a2600760008473ffffffffffffffffffffffffffffffffffffffff1673ffffffffffffffffffffffffffffffffffffffff168152602001908152602001600020600001546112d6565b600760008473ffffffffffffffffffffffffffffffffffffffff1673ffffffffffffffffffffffffffffffffffffffff168152602001908152602001600020600101819055505050565b600080600760008473ffffffffffffffffffffffffffffffffffffffff1673ffffffffffffffffffffffffffffffffffffffff1681526020019081526020016000206000015414156106415760009050610701565b600061068e600760008573ffffffffffffffffffffffffffffffffffffffff1673ffffffffffffffffffffffffffffffffffffffff168152602001908152602001600020600001546112d6565b90506000600760008573ffffffffffffffffffffffffffffffffffffffff1673ffffffffffffffffffffffffffffffffffffffff1681526020019081526020016000206001015490508082116106e957600092505050610701565b6106fc81836112aa90919063ffffffff16565b925050505b919050565b60008054906101000a900473ffffffffffffffffffffffffffffffffffffffff1673ffffffffffffffffffffffffffffffffffffffff163373ffffffffffffffffffffffffffffffffffffffff161461075e57600080fd5b81600d8190555080600e819055505050565b60085481565b600e5481565b60095481565b60076020528060005260406000206000915090508060000154908060010154908060020154905083565b60008054906101000a900473ffffffffffffffffffffffffffffffffffffffff1673ffffffffffffffffffffffffffffffffffffffff163373ffffffffffffffffffffffffffffffffffffffff161461080457600080fd5b6000600160009054906101000a900473ffffffffffffffffffffffffffffffffffffffff1673ffffffffffffffffffffffffffffffffffffffff166370a08231306040518263ffffffff1660e01b815260040161086191906115db565b60206040518083038186803b15801561087957600080fd5b505afa15801561088d573d6000803e3d6000fd5b505050506040513d601f19601f820116820180604052508101906108b191906114bc565b90506000600267ffffffffffffffff8111156108d0576108cf61196a565b5b6040519080825280602002602001820160405280156108fe5781602001602082028036833780820191505090505b509050600260009054906101000a900473ffffffffffffffffffffffffffffffffffffffff16816000815181106109385761093761193b565b5b602002602001019073ffffffffffffffffffffffffffffffffffffffff16908173ffffffffffffffffffffffffffffffffffffffff1681525050600160009054906101000a900473ffffffffffffffffffffffffffffffffffffffff16816001815181106109a9576109a861193b565b5b602002602001019073ffffffffffffffffffffffffffffffffffffffff16908173ffffffffffffffffffffffffffffffffffffffff1681525050600360009054906101000a900473ffffffffffffffffffffffffffffffffffffffff1673ffffffffffffffffffffffffffffffffffffffff1663b6f9de953460008430426040518663ffffffff1660e01b8152600401610a46949392919061161f565b6000604051808303818588803b158015610a5f57600080fd5b505af1158015610a73573d6000803e3d6000fd5b50505050506000610b3783600160009054906101000a900473ffffffffffffffffffffffffffffffffffffffff1673ffffffffffffffffffffffffffffffffffffffff166370a08231306040518263ffffffff1660e01b8152600401610ad991906115db565b60206040518083038186803b158015610af157600080fd5b505afa158015610b05573d6000803e3d6000fd5b505050506040513d601f19601f82011682018060405250810190610b2991906114bc565b6112aa90919063ffffffff16565b9050610b4e816009546112c090919063ffffffff16565b600981905550610b91610b80600854610b7284600c5461130890919063ffffffff16565b61131e90919063ffffffff16565b600b546112c090919063ffffffff16565b600b81905550505050565b600b5481565b600a5481565b610bb133610d4d565b565b60008054906101000a900473ffffffffffffffffffffffffffffffffffffffff1673ffffffffffffffffffffffffffffffffffffffff163373ffffffffffffffffffffffffffffffffffffffff1614610c0b57600080fd5b600060048054905090506000811415610c245750610d44565b6000805a905060005b8483108015610c3b57508381105b15610d3f5783600f5410610c52576000600f819055505b610c9b6004600f5481548110610c6b57610c6a61193b565b5b9060005260206000200160009054906101000a900473ffffffffffffffffffffffffffffffffffffffff16611334565b15610cea57610ce96004600f5481548110610cb957610cb861193b565b5b9060005260206000200160009054906101000a900473ffffffffffffffffffffffffffffffffffffffff16610d4d565b5b610d0f610d005a846112aa90919063ffffffff16565b846112c090919063ffffffff16565b92505a9150600f6000815480929190610d2790611865565b91905055508080610d3790611865565b915050610c2d565b505050505b50565b600d5481565b6000600760008373ffffffffffffffffffffffffffffffffffffffff1673ffffffffffffffffffffffffffffffffffffffff168152602001908152602001600020600001541415610d9d57610ff1565b6000610da8826105ec565b90506000811115610fef57610dc881600a546112c090919063ffffffff16565b600a81905550600160009054906101000a900473ffffffffffffffffffffffffffffffffffffffff1673ffffffffffffffffffffffffffffffffffffffff1663a9059cbb83836040518363ffffffff1660e01b8152600401610e2b9291906115f6565b602060405180830381600087803b158015610e4557600080fd5b505af1158015610e59573d6000803e3d6000fd5b505050506040513d601f19601f82011682018060405250810190610e7d9190611462565b5042600660008473ffffffffffffffffffffffffffffffffffffffff1673ffffffffffffffffffffffffffffffffffffffff16815260200190815260200160002081905550610f1781600760008573ffffffffffffffffffffffffffffffffffffffff1673ffffffffffffffffffffffffffffffffffffffff168152602001908152602001600020600201546112c090919063ffffffff16565b600760008473ffffffffffffffffffffffffffffffffffffffff1673ffffffffffffffffffffffffffffffffffffffff16815260200190815260200160002060020181905550610fa8600760008473ffffffffffffffffffffffffffffffffffffffff1673ffffffffffffffffffffffffffffffffffffffff168152602001908152602001600020600001546112d6565b600760008473ffffffffffffffffffffffffffffffffffffffff1673ffffffffffffffffffffffffffffffffffffffff168152602001908152602001600020600101819055505b505b50565b600480549050600560008373ffffffffffffffffffffffffffffffffffffffff1673ffffffffffffffffffffffffffffffffffffffff168152602001908152602001600020819055506004819080600181540180825580915050600190039060005260206000200160009091909190916101000a81548173ffffffffffffffffffffffffffffffffffffffff021916908373ffffffffffffffffffffffffffffffffffffffff16021790555050565b600460016004805490506110b791906117d7565b815481106110c8576110c761193b565b5b9060005260206000200160009054906101000a900473ffffffffffffffffffffffffffffffffffffffff166004600560008473ffffffffffffffffffffffffffffffffffffffff1673ffffffffffffffffffffffffffffffffffffffff16815260200190815260200160002054815481106111465761114561193b565b5b9060005260206000200160006101000a81548173ffffffffffffffffffffffffffffffffffffffff021916908373ffffffffffffffffffffffffffffffffffffffff160217905550600560008273ffffffffffffffffffffffffffffffffffffffff1673ffffffffffffffffffffffffffffffffffffffff1681526020019081526020016000205460056000600460016004805490506111e691906117d7565b815481106111f7576111f661193b565b5b9060005260206000200160009054906101000a900473ffffffffffffffffffffffffffffffffffffffff1673ffffffffffffffffffffffffffffffffffffffff1673ffffffffffffffffffffffffffffffffffffffff1681526020019081526020016000208190555060048054806112725761127161190c565b5b6001900381819060005260206000200160006101000a81549073ffffffffffffffffffffffffffffffffffffffff0219169055905550565b600081836112b891906117d7565b905092915050565b600081836112ce91906116f6565b905092915050565b6000611301600c546112f3600b548561130890919063ffffffff16565b61131e90919063ffffffff16565b9050919050565b60008183611316919061177d565b905092915050565b6000818361132c919061174c565b905092915050565b600042600d54600660008573ffffffffffffffffffffffffffffffffffffffff1673ffffffffffffffffffffffffffffffffffffffff1681526020019081526020016000205461138491906116f6565b10801561139a5750600e54611398836105ec565b115b9050919050565b6000813590506113b08161199e565b92915050565b6000815190506113c5816119b5565b92915050565b6000813590506113da816119cc565b92915050565b6000815190506113ef816119cc565b92915050565b60006020828403121561140b5761140a611999565b5b6000611419848285016113a1565b91505092915050565b6000806040838503121561143957611438611999565b5b6000611447858286016113a1565b9250506020611458858286016113cb565b9150509250929050565b60006020828403121561147857611477611999565b5b6000611486848285016113b6565b91505092915050565b6000602082840312156114a5576114a4611999565b5b60006114b3848285016113cb565b91505092915050565b6000602082840312156114d2576114d1611999565b5b60006114e0848285016113e0565b91505092915050565b60008060408385031215611500576114ff611999565b5b600061150e858286016113cb565b925050602061151f858286016113cb565b9150509250929050565b60006115358383611541565b60208301905092915050565b61154a8161180b565b82525050565b6115598161180b565b82525050565b600061156a826116cd565b61157481856116e5565b935061157f836116bd565b8060005b838110156115b05781516115978882611529565b97506115a2836116d8565b925050600181019050611583565b5085935050505092915050565b6115c681611853565b82525050565b6115d581611849565b82525050565b60006020820190506115f06000830184611550565b92915050565b600060408201905061160b6000830185611550565b61161860208301846115cc565b9392505050565b600060808201905061163460008301876115bd565b8181036020830152611646818661155f565b90506116556040830185611550565b61166260608301846115cc565b95945050505050565b600060208201905061168060008301846115cc565b92915050565b600060608201905061169b60008301866115cc565b6116a860208301856115cc565b6116b560408301846115cc565b949350505050565b6000819050602082019050919050565b600081519050919050565b6000602082019050919050565b600082825260208201905092915050565b600061170182611849565b915061170c83611849565b9250827fffffffffffffffffffffffffffffffffffffffffffffffffffffffffffffffff03821115611741576117406118ae565b5b828201905092915050565b600061175782611849565b915061176283611849565b925082611772576117716118dd565b5b828204905092915050565b600061178882611849565b915061179383611849565b9250817fffffffffffffffffffffffffffffffffffffffffffffffffffffffffffffffff04831182151516156117cc576117cb6118ae565b5b828202905092915050565b60006117e282611849565b91506117ed83611849565b925082821015611800576117ff6118ae565b5b828203905092915050565b600061181682611829565b9050919050565b60008115159050919050565b600073ffffffffffffffffffffffffffffffffffffffff82169050919050565b6000819050919050565b600061185e82611849565b9050919050565b600061187082611849565b91507fffffffffffffffffffffffffffffffffffffffffffffffffffffffffffffffff8214156118a3576118a26118ae565b5b600182019050919050565b7f4e487b7100000000000000000000000000000000000000000000000000000000600052601160045260246000fd5b7f4e487b7100000000000000000000000000000000000000000000000000000000600052601260045260246000fd5b7f4e487b7100000000000000000000000000000000000000000000000000000000600052603160045260246000fd5b7f4e487b7100000000000000000000000000000000000000000000000000000000600052603260045260246000fd5b7f4e487b7100000000000000000000000000000000000000000000000000000000600052604160045260246000fd5b600080fd5b6119a78161180b565b81146119b257600080fd5b50565b6119be8161181d565b81146119c957600080fd5b50565b6119d581611849565b81146119e057600080fd5b5056fea2646970667358221220e20640c4c1ae67c377ce5654c442bb32b42de8590289fd83620bb0408c30f39864736f6c63430008070033",
  "immutableReferences": {},
  "source": "// SPDX-License-Identifier: MIT\r\npragma solidity ^0.8.7;\r\n\r\nimport \"@openzeppelin/contracts/utils/math/SafeMath.sol\";\r\nimport \"@openzeppelin/contracts/token/ERC20/IERC20.sol\";\r\n\r\nimport \"../interfaces/IUniswapV2Router02.sol\";\r\n\r\ncontract DividendDistributor  {\r\n    using SafeMath for uint256;\r\n\r\n    /** ======= GLOBAL PARAMS ======= */\r\n\r\n    // Dividend Token;\r\n    address token;\r\n\r\n    // Tshare Token; \r\n    IERC20 EP = IERC20(0x82f0B8B456c1A451378467398982d4834b6829c1); // MIM  \r\n\r\n    // WFTM;\r\n    address WFTM = 0x21be370D5312f44cB42ce377BC9b8a0cEF1A4C83;\r\n\r\n    // Spookyswap Router; \r\n    IUniswapV2Router02 router;\r\n\r\n    struct Share {\r\n        uint256 amount;\r\n        uint256 totalExcluded;// excluded dividend\r\n        uint256 totalRealised;\r\n    }\r\n\r\n    address[] shareholders;\r\n    mapping (address => uint256) shareholderIndexes;\r\n    mapping (address => uint256) shareholderClaims;\r\n\r\n    mapping (address => Share) public shares;\r\n\r\n    uint256 public totalShares;\r\n    uint256 public totalDividends;\r\n    uint256 public totalDistributed;\r\n    uint256 public dividendsPerShare;\r\n    uint256 public dividendsPerShareAccuracyFactor = 10 ** 36;\r\n\r\n    uint256 public minPeriod = 1 seconds; //1 hours;\r\n    uint256 public minDistribution = 10 * (10 ** 18);\r\n\r\n    uint256 currentIndex;\r\n\r\n    bool initialized;\r\n\r\n    /** ======= CONSTRUCTOR ======= */\r\n\r\n    constructor (address _router) {\r\n        require(_router != address(0), \"_router is zero address\"); \r\n\r\n        // Initialize the router; \r\n        router = IUniswapV2Router02(_router);\r\n\r\n        // Initialize the token; \r\n        token = msg.sender;\r\n    }\r\n\r\n    /** ======= EXTERNAL FUNCTIONS ======= */\r\n\r\n    function claimDividend() external {\r\n        distributeDividend(msg.sender);\r\n    }\r\n\r\n    /** ======= TOKEN ONLY FUNCTIONS ======= */\r\n\r\n    function setDistributionCriteria(uint256 _minPeriod, uint256 _minDistribution) external onlyToken {\r\n        minPeriod = _minPeriod;\r\n        minDistribution = _minDistribution;\r\n    }\r\n\r\n    function setShare(address shareholder, uint256 amount) external onlyToken {\r\n        if(shares[shareholder].amount > 0){\r\n            distributeDividend(shareholder);\r\n        }\r\n\r\n        if(amount > 0 && shares[shareholder].amount == 0){\r\n            addShareholder(shareholder);\r\n        }else if(amount == 0 && shares[shareholder].amount > 0){\r\n            removeShareholder(shareholder);\r\n        }\r\n\r\n        totalShares = totalShares.sub(shares[shareholder].amount).add(amount);\r\n        shares[shareholder].amount = amount;\r\n        shares[shareholder].totalExcluded = getCumulativeDividends(shares[shareholder].amount);\r\n    }\r\n\r\n    function deposit() external payable onlyToken {\r\n        uint256 balanceBefore = EP.balanceOf(address(this));\r\n\r\n        address[] memory path = new address[](2);\r\n        path[0] = WFTM;\r\n        path[1] = address(EP);\r\n\r\n        router.swapExactETHForTokensSupportingFeeOnTransferTokens{value: msg.value}(\r\n            0,\r\n            path,\r\n            address(this),\r\n            block.timestamp\r\n        );\r\n\r\n        uint256 amount = EP.balanceOf(address(this)).sub(balanceBefore);\r\n\r\n        totalDividends = totalDividends.add(amount);\r\n        dividendsPerShare = dividendsPerShare.add(dividendsPerShareAccuracyFactor.mul(amount).div(totalShares));\r\n    }\r\n\r\n    function process(uint256 _gas) external onlyToken {\r\n        // Get total shareholders; \r\n        uint256 shareholderCount = shareholders.length;\r\n\r\n        if(shareholderCount == 0) { \r\n            return; \r\n        }\r\n\r\n        uint256 gasUsed = 0;\r\n        uint256 gasLeft = gasleft();\r\n\r\n        uint256 iterations = 0;\r\n\r\n        // Iterate untill theres no more gas AND we have no more shareholders to distribute;  \r\n        while(gasUsed < _gas && iterations < shareholderCount) {\r\n            if(currentIndex >= shareholderCount){\r\n                currentIndex = 0;\r\n            }\r\n            // Distribute Shares; \r\n            if(shouldDistribute(shareholders[currentIndex])){\r\n                distributeDividend(shareholders[currentIndex]);\r\n            }\r\n\r\n            gasUsed = gasUsed.add(gasLeft.sub(gasleft()));\r\n            gasLeft = gasleft();\r\n            currentIndex++;\r\n            iterations++;\r\n        }\r\n    }\r\n\r\n    /** ======= INTERNAL VIEW FUNCTIONS ======= */\r\n\r\n    function shouldDistribute(address _shareholder) internal view returns (bool) {\r\n        // Check \r\n        // Check unpaid earnings are higher than minDistribution; \r\n        return \r\n            shareholderClaims[_shareholder] + minPeriod < block.timestamp\r\n        && \r\n            getUnpaidEarnings(_shareholder) > minDistribution;\r\n    }\r\n\r\n    function getUnpaidEarnings(address _shareholder) public view returns (uint256) {\r\n        // Make shure address has shares; \r\n        if(shares[_shareholder].amount == 0){ \r\n            return 0; \r\n        }\r\n\r\n        uint256 shareholderTotalDividends = getCumulativeDividends(shares[_shareholder].amount);\r\n        uint256 shareholderTotalExcluded = shares[_shareholder].totalExcluded;\r\n\r\n        if(shareholderTotalDividends <= shareholderTotalExcluded){ \r\n            return 0; \r\n        }\r\n\r\n        return shareholderTotalDividends.sub(shareholderTotalExcluded);\r\n    }\r\n\r\n    function getCumulativeDividends(uint256 _share) internal view returns (uint256) {\r\n        return _share.mul(dividendsPerShare).div(dividendsPerShareAccuracyFactor);\r\n    }\r\n\r\n    /** ======= INTERNAL FUNCTIONS ======= */\r\n\r\n    function distributeDividend(address _shareholder) internal {\r\n\r\n        // Make shure the shareholder has shares; \r\n        if(shares[_shareholder].amount == 0){ \r\n            return; \r\n        }\r\n\r\n        // Get the shareholder earnings; \r\n        uint256 amount = getUnpaidEarnings(_shareholder);\r\n\r\n        // If shareholder has earnings distribute; \r\n        if(amount > 0){\r\n            // Update totals; \r\n            totalDistributed = totalDistributed.add(amount);\r\n            // Transfer the shares to holder; \r\n            EP.transfer(_shareholder, amount);\r\n            // Update holderClaims; \r\n            shareholderClaims[_shareholder] = block.timestamp;\r\n            // Update holder totals; \r\n            shares[_shareholder].totalRealised = shares[_shareholder].totalRealised.add(amount);\r\n            shares[_shareholder].totalExcluded = getCumulativeDividends(shares[_shareholder].amount);\r\n        }\r\n    }\r\n\r\n    function addShareholder(address _shareholder) internal {\r\n        shareholderIndexes[_shareholder] = shareholders.length;\r\n        shareholders.push(_shareholder);\r\n    }\r\n\r\n    function removeShareholder(address _shareholder) internal {\r\n        shareholders[shareholderIndexes[_shareholder]] = shareholders[shareholders.length-1];\r\n        shareholderIndexes[shareholders[shareholders.length-1]] = shareholderIndexes[_shareholder];\r\n        shareholders.pop();\r\n    }\r\n\r\n    /** ======= MODIFIERS ======= */\r\n\r\n    modifier initialization() {\r\n        require(!initialized);\r\n        _;\r\n        initialized = true;\r\n    }\r\n    \r\n    modifier onlyToken() {\r\n        require(msg.sender == token); _;\r\n    }\r\n}",
  "sourcePath": "G:\\Projects\\KavanSmartContract\\contracts\\helpers\\DividendDistributor.sol",
  "compiler": {
    "name": "solc",
    "version": "0.8.7+commit.e28d00a7.Emscripten.clang"
  },
  "schemaVersion": "3.4.4",
  "updatedAt": "2022-02-01T11:55:23.378Z",
  "networkType": "ethereum",
  "devdoc": {
    "kind": "dev",
    "methods": {},
    "version": 1
  },
  "userdoc": {
    "kind": "user",
    "methods": {
      "claimDividend()": {
        "notice": "======= EXTERNAL FUNCTIONS ======= "
      },
      "constructor": {
        "notice": "======= CONSTRUCTOR ======= "
      },
      "setDistributionCriteria(uint256,uint256)": {
        "notice": "======= TOKEN ONLY FUNCTIONS ======= "
      }
    },
    "version": 1
  }
}