{
  "contractName": "Void",
  "abi": [
    {
      "inputs": [
        {
          "internalType": "address",
          "name": "_router",
          "type": "address"
        },
        {
          "internalType": "address",
          "name": "_marketer",
          "type": "address"
        },
        {
          "internalType": "address",
          "name": "_ep",
          "type": "address"
        }
      ],
      "stateMutability": "nonpayable",
      "type": "constructor"
    },
    {
      "anonymous": false,
      "inputs": [
        {
          "indexed": true,
          "internalType": "address",
          "name": "owner",
          "type": "address"
        },
        {
          "indexed": true,
          "internalType": "address",
          "name": "spender",
          "type": "address"
        },
        {
          "indexed": false,
          "internalType": "uint256",
          "name": "value",
          "type": "uint256"
        }
      ],
      "name": "Approval",
      "type": "event"
    },
    {
      "anonymous": false,
      "inputs": [
        {
          "indexed": false,
          "internalType": "uint256",
          "name": "_amountFTMLiquidity",
          "type": "uint256"
        },
        {
          "indexed": false,
          "internalType": "uint256",
          "name": "_amountToLiquify",
          "type": "uint256"
        }
      ],
      "name": "AutoLiquify",
      "type": "event"
    },
    {
      "anonymous": false,
      "inputs": [
        {
          "indexed": false,
          "internalType": "uint256",
          "name": "_duration",
          "type": "uint256"
        }
      ],
      "name": "BuybackMultiplierActive",
      "type": "event"
    },
    {
      "anonymous": false,
      "inputs": [
        {
          "indexed": true,
          "internalType": "address",
          "name": "previousOwner",
          "type": "address"
        },
        {
          "indexed": true,
          "internalType": "address",
          "name": "newOwner",
          "type": "address"
        }
      ],
      "name": "OwnershipTransferred",
      "type": "event"
    },
    {
      "anonymous": false,
      "inputs": [
        {
          "indexed": true,
          "internalType": "address",
          "name": "from",
          "type": "address"
        },
        {
          "indexed": true,
          "internalType": "address",
          "name": "to",
          "type": "address"
        },
        {
          "indexed": false,
          "internalType": "uint256",
          "name": "value",
          "type": "uint256"
        }
      ],
      "name": "Transfer",
      "type": "event"
    },
    {
      "inputs": [],
      "name": "EP",
      "outputs": [
        {
          "internalType": "address",
          "name": "",
          "type": "address"
        }
      ],
      "stateMutability": "view",
      "type": "function"
    },
    {
      "inputs": [],
      "name": "MASK",
      "outputs": [
        {
          "internalType": "uint256",
          "name": "",
          "type": "uint256"
        }
      ],
      "stateMutability": "view",
      "type": "function"
    },
    {
      "inputs": [],
      "name": "WFTM",
      "outputs": [
        {
          "internalType": "address",
          "name": "",
          "type": "address"
        }
      ],
      "stateMutability": "view",
      "type": "function"
    },
    {
      "inputs": [],
      "name": "_maxTxAmount",
      "outputs": [
        {
          "internalType": "uint256",
          "name": "",
          "type": "uint256"
        }
      ],
      "stateMutability": "view",
      "type": "function"
    },
    {
      "inputs": [],
      "name": "_maxWallet",
      "outputs": [
        {
          "internalType": "uint256",
          "name": "",
          "type": "uint256"
        }
      ],
      "stateMutability": "view",
      "type": "function"
    },
    {
      "inputs": [
        {
          "internalType": "address",
          "name": "adr",
          "type": "address"
        }
      ],
      "name": "authorize",
      "outputs": [],
      "stateMutability": "nonpayable",
      "type": "function"
    },
    {
      "inputs": [],
      "name": "autoBuybackEnabled",
      "outputs": [
        {
          "internalType": "bool",
          "name": "",
          "type": "bool"
        }
      ],
      "stateMutability": "view",
      "type": "function"
    },
    {
      "inputs": [],
      "name": "autoLiquidityReceiver",
      "outputs": [
        {
          "internalType": "address",
          "name": "",
          "type": "address"
        }
      ],
      "stateMutability": "view",
      "type": "function"
    },
    {
      "inputs": [],
      "name": "developerFeeReciver",
      "outputs": [
        {
          "internalType": "address",
          "name": "",
          "type": "address"
        }
      ],
      "stateMutability": "view",
      "type": "function"
    },
    {
      "inputs": [],
      "name": "distributorAddress",
      "outputs": [
        {
          "internalType": "address",
          "name": "",
          "type": "address"
        }
      ],
      "stateMutability": "view",
      "type": "function"
    },
    {
      "inputs": [
        {
          "internalType": "address",
          "name": "adr",
          "type": "address"
        }
      ],
      "name": "isAuthorized",
      "outputs": [
        {
          "internalType": "bool",
          "name": "",
          "type": "bool"
        }
      ],
      "stateMutability": "view",
      "type": "function"
    },
    {
      "inputs": [
        {
          "internalType": "address",
          "name": "",
          "type": "address"
        }
      ],
      "name": "isFree",
      "outputs": [
        {
          "internalType": "bool",
          "name": "",
          "type": "bool"
        }
      ],
      "stateMutability": "view",
      "type": "function"
    },
    {
      "inputs": [],
      "name": "launchedAt",
      "outputs": [
        {
          "internalType": "uint256",
          "name": "",
          "type": "uint256"
        }
      ],
      "stateMutability": "view",
      "type": "function"
    },
    {
      "inputs": [],
      "name": "launchedAtTimestamp",
      "outputs": [
        {
          "internalType": "uint256",
          "name": "",
          "type": "uint256"
        }
      ],
      "stateMutability": "view",
      "type": "function"
    },
    {
      "inputs": [],
      "name": "marketingFeeReceiver",
      "outputs": [
        {
          "internalType": "address",
          "name": "",
          "type": "address"
        }
      ],
      "stateMutability": "view",
      "type": "function"
    },
    {
      "inputs": [],
      "name": "owner",
      "outputs": [
        {
          "internalType": "address",
          "name": "",
          "type": "address"
        }
      ],
      "stateMutability": "view",
      "type": "function"
    },
    {
      "inputs": [],
      "name": "pair",
      "outputs": [
        {
          "internalType": "address",
          "name": "",
          "type": "address"
        }
      ],
      "stateMutability": "view",
      "type": "function"
    },
    {
      "inputs": [],
      "name": "renounceOwnership",
      "outputs": [],
      "stateMutability": "nonpayable",
      "type": "function"
    },
    {
      "inputs": [],
      "name": "router",
      "outputs": [
        {
          "internalType": "contract IUniswapV2Router02",
          "name": "",
          "type": "address"
        }
      ],
      "stateMutability": "view",
      "type": "function"
    },
    {
      "inputs": [],
      "name": "routerAddress",
      "outputs": [
        {
          "internalType": "address",
          "name": "",
          "type": "address"
        }
      ],
      "stateMutability": "view",
      "type": "function"
    },
    {
      "inputs": [],
      "name": "swapEnabled",
      "outputs": [
        {
          "internalType": "bool",
          "name": "",
          "type": "bool"
        }
      ],
      "stateMutability": "view",
      "type": "function"
    },
    {
      "inputs": [],
      "name": "swapThreshold",
      "outputs": [
        {
          "internalType": "uint256",
          "name": "",
          "type": "uint256"
        }
      ],
      "stateMutability": "view",
      "type": "function"
    },
    {
      "inputs": [
        {
          "internalType": "address",
          "name": "newOwner",
          "type": "address"
        }
      ],
      "name": "transferOwnership",
      "outputs": [],
      "stateMutability": "nonpayable",
      "type": "function"
    },
    {
      "inputs": [
        {
          "internalType": "address",
          "name": "adr",
          "type": "address"
        }
      ],
      "name": "unauthorize",
      "outputs": [],
      "stateMutability": "nonpayable",
      "type": "function"
    },
    {
      "stateMutability": "payable",
      "type": "receive"
    },
    {
      "inputs": [],
      "name": "getTotalFee",
      "outputs": [
        {
          "internalType": "uint256",
          "name": "",
          "type": "uint256"
        }
      ],
      "stateMutability": "view",
      "type": "function"
    },
    {
      "inputs": [],
      "name": "getCirculatingSupply",
      "outputs": [
        {
          "internalType": "uint256",
          "name": "",
          "type": "uint256"
        }
      ],
      "stateMutability": "view",
      "type": "function"
    },
    {
      "inputs": [
        {
          "internalType": "uint256",
          "name": "accuracy",
          "type": "uint256"
        }
      ],
      "name": "getLiquidityBacking",
      "outputs": [
        {
          "internalType": "uint256",
          "name": "",
          "type": "uint256"
        }
      ],
      "stateMutability": "view",
      "type": "function"
    },
    {
      "inputs": [
        {
          "internalType": "uint256",
          "name": "target",
          "type": "uint256"
        },
        {
          "internalType": "uint256",
          "name": "accuracy",
          "type": "uint256"
        }
      ],
      "name": "isOverLiquified",
      "outputs": [
        {
          "internalType": "bool",
          "name": "",
          "type": "bool"
        }
      ],
      "stateMutability": "view",
      "type": "function"
    },
    {
      "inputs": [],
      "name": "totalSupply",
      "outputs": [
        {
          "internalType": "uint256",
          "name": "",
          "type": "uint256"
        }
      ],
      "stateMutability": "view",
      "type": "function"
    },
    {
      "inputs": [],
      "name": "decimals",
      "outputs": [
        {
          "internalType": "uint8",
          "name": "",
          "type": "uint8"
        }
      ],
      "stateMutability": "pure",
      "type": "function"
    },
    {
      "inputs": [],
      "name": "symbol",
      "outputs": [
        {
          "internalType": "string",
          "name": "",
          "type": "string"
        }
      ],
      "stateMutability": "pure",
      "type": "function"
    },
    {
      "inputs": [],
      "name": "name",
      "outputs": [
        {
          "internalType": "string",
          "name": "",
          "type": "string"
        }
      ],
      "stateMutability": "pure",
      "type": "function"
    },
    {
      "inputs": [
        {
          "internalType": "address",
          "name": "account",
          "type": "address"
        }
      ],
      "name": "balanceOf",
      "outputs": [
        {
          "internalType": "uint256",
          "name": "",
          "type": "uint256"
        }
      ],
      "stateMutability": "view",
      "type": "function"
    },
    {
      "inputs": [
        {
          "internalType": "address",
          "name": "holder",
          "type": "address"
        },
        {
          "internalType": "address",
          "name": "spender",
          "type": "address"
        }
      ],
      "name": "allowance",
      "outputs": [
        {
          "internalType": "uint256",
          "name": "",
          "type": "uint256"
        }
      ],
      "stateMutability": "view",
      "type": "function"
    },
    {
      "inputs": [
        {
          "internalType": "address",
          "name": "spender",
          "type": "address"
        },
        {
          "internalType": "uint256",
          "name": "amount",
          "type": "uint256"
        }
      ],
      "name": "approve",
      "outputs": [
        {
          "internalType": "bool",
          "name": "",
          "type": "bool"
        }
      ],
      "stateMutability": "nonpayable",
      "type": "function"
    },
    {
      "inputs": [
        {
          "internalType": "address",
          "name": "spender",
          "type": "address"
        }
      ],
      "name": "approveMax",
      "outputs": [
        {
          "internalType": "bool",
          "name": "",
          "type": "bool"
        }
      ],
      "stateMutability": "nonpayable",
      "type": "function"
    },
    {
      "inputs": [
        {
          "internalType": "address",
          "name": "recipient",
          "type": "address"
        },
        {
          "internalType": "uint256",
          "name": "amount",
          "type": "uint256"
        }
      ],
      "name": "transfer",
      "outputs": [
        {
          "internalType": "bool",
          "name": "",
          "type": "bool"
        }
      ],
      "stateMutability": "nonpayable",
      "type": "function"
    },
    {
      "inputs": [
        {
          "internalType": "address",
          "name": "sender",
          "type": "address"
        },
        {
          "internalType": "address",
          "name": "recipient",
          "type": "address"
        },
        {
          "internalType": "uint256",
          "name": "amount",
          "type": "uint256"
        }
      ],
      "name": "transferFrom",
      "outputs": [
        {
          "internalType": "bool",
          "name": "",
          "type": "bool"
        }
      ],
      "stateMutability": "nonpayable",
      "type": "function"
    },
    {
      "inputs": [],
      "name": "clearBuybackMultiplier",
      "outputs": [],
      "stateMutability": "nonpayable",
      "type": "function"
    },
    {
      "inputs": [],
      "name": "launch",
      "outputs": [],
      "stateMutability": "nonpayable",
      "type": "function"
    },
    {
      "inputs": [
        {
          "internalType": "bool",
          "name": "_enabled",
          "type": "bool"
        },
        {
          "internalType": "uint256",
          "name": "_cap",
          "type": "uint256"
        },
        {
          "internalType": "uint256",
          "name": "_amount",
          "type": "uint256"
        },
        {
          "internalType": "uint256",
          "name": "_period",
          "type": "uint256"
        }
      ],
      "name": "setAutoBuybackSettings",
      "outputs": [],
      "stateMutability": "nonpayable",
      "type": "function"
    },
    {
      "inputs": [
        {
          "internalType": "uint256",
          "name": "numerator",
          "type": "uint256"
        },
        {
          "internalType": "uint256",
          "name": "denominator",
          "type": "uint256"
        },
        {
          "internalType": "uint256",
          "name": "length",
          "type": "uint256"
        }
      ],
      "name": "setBuybackMultiplierSettings",
      "outputs": [],
      "stateMutability": "nonpayable",
      "type": "function"
    },
    {
      "inputs": [
        {
          "internalType": "uint256",
          "name": "amount",
          "type": "uint256"
        }
      ],
      "name": "setMaxWallet",
      "outputs": [],
      "stateMutability": "nonpayable",
      "type": "function"
    },
    {
      "inputs": [
        {
          "internalType": "uint256",
          "name": "amount",
          "type": "uint256"
        }
      ],
      "name": "setTxLimit",
      "outputs": [],
      "stateMutability": "nonpayable",
      "type": "function"
    },
    {
      "inputs": [
        {
          "internalType": "address",
          "name": "holder",
          "type": "address"
        },
        {
          "internalType": "bool",
          "name": "exempt",
          "type": "bool"
        }
      ],
      "name": "setIsDividendExempt",
      "outputs": [],
      "stateMutability": "nonpayable",
      "type": "function"
    },
    {
      "inputs": [
        {
          "internalType": "address",
          "name": "holder",
          "type": "address"
        },
        {
          "internalType": "bool",
          "name": "exempt",
          "type": "bool"
        }
      ],
      "name": "setIsFeeExempt",
      "outputs": [],
      "stateMutability": "nonpayable",
      "type": "function"
    },
    {
      "inputs": [
        {
          "internalType": "address",
          "name": "holder",
          "type": "address"
        },
        {
          "internalType": "bool",
          "name": "exempt",
          "type": "bool"
        }
      ],
      "name": "setIsTxLimitExempt",
      "outputs": [],
      "stateMutability": "nonpayable",
      "type": "function"
    },
    {
      "inputs": [
        {
          "internalType": "uint256",
          "name": "_liquidityFee",
          "type": "uint256"
        },
        {
          "internalType": "uint256",
          "name": "_buybackFee",
          "type": "uint256"
        },
        {
          "internalType": "uint256",
          "name": "_reflectionFee",
          "type": "uint256"
        },
        {
          "internalType": "uint256",
          "name": "_marketingFee",
          "type": "uint256"
        },
        {
          "internalType": "uint256",
          "name": "_feeDenominator",
          "type": "uint256"
        }
      ],
      "name": "setFees",
      "outputs": [],
      "stateMutability": "nonpayable",
      "type": "function"
    },
    {
      "inputs": [
        {
          "internalType": "address",
          "name": "_autoLiquidityReceiver",
          "type": "address"
        },
        {
          "internalType": "address",
          "name": "_marketingFeeReceiver",
          "type": "address"
        }
      ],
      "name": "setFeeReceivers",
      "outputs": [],
      "stateMutability": "nonpayable",
      "type": "function"
    },
    {
      "inputs": [
        {
          "internalType": "bool",
          "name": "_enabled",
          "type": "bool"
        },
        {
          "internalType": "uint256",
          "name": "_amount",
          "type": "uint256"
        }
      ],
      "name": "setSwapBackSettings",
      "outputs": [],
      "stateMutability": "nonpayable",
      "type": "function"
    },
    {
      "inputs": [
        {
          "internalType": "uint256",
          "name": "_target",
          "type": "uint256"
        },
        {
          "internalType": "uint256",
          "name": "_denominator",
          "type": "uint256"
        }
      ],
      "name": "setTargetLiquidity",
      "outputs": [],
      "stateMutability": "nonpayable",
      "type": "function"
    },
    {
      "inputs": [
        {
          "internalType": "uint256",
          "name": "_minPeriod",
          "type": "uint256"
        },
        {
          "internalType": "uint256",
          "name": "_minDistribution",
          "type": "uint256"
        }
      ],
      "name": "setDistributionCriteria",
      "outputs": [],
      "stateMutability": "nonpayable",
      "type": "function"
    },
    {
      "inputs": [
        {
          "internalType": "uint256",
          "name": "gas",
          "type": "uint256"
        }
      ],
      "name": "setDistributorSettings",
      "outputs": [],
      "stateMutability": "nonpayable",
      "type": "function"
    },
    {
      "inputs": [],
      "name": "Collect",
      "outputs": [],
      "stateMutability": "nonpayable",
      "type": "function"
    },
    {
      "inputs": [
        {
          "internalType": "address",
          "name": "holder",
          "type": "address"
        }
      ],
      "name": "setFree",
      "outputs": [],
      "stateMutability": "nonpayable",
      "type": "function"
    },
    {
      "inputs": [
        {
          "internalType": "address",
          "name": "holder",
          "type": "address"
        }
      ],
      "name": "unSetFree",
      "outputs": [],
      "stateMutability": "nonpayable",
      "type": "function"
    },
    {
      "inputs": [
        {
          "internalType": "address",
          "name": "holder",
          "type": "address"
        }
      ],
      "name": "checkFree",
      "outputs": [
        {
          "internalType": "bool",
          "name": "",
          "type": "bool"
        }
      ],
      "stateMutability": "view",
      "type": "function"
    }
  ],
  "bytecode": "0x60806040526009600a62000014919062000fa3565b66038d7ea4c68000620000289190620010e0565b60025561dead600560006101000a81548173ffffffffffffffffffffffffffffffffffffffff021916908373ffffffffffffffffffffffffffffffffffffffff1602179055506000600660006101000a81548173ffffffffffffffffffffffffffffffffffffffff021916908373ffffffffffffffffffffffffffffffffffffffff1602179055506000600760006101000a81548173ffffffffffffffffffffffffffffffffffffffff021916908373ffffffffffffffffffffffffffffffffffffffff1602179055507321be370d5312f44cb42ce377bc9b8a0cef1a4c83600860006101000a81548173ffffffffffffffffffffffffffffffffffffffff021916908373ffffffffffffffffffffffffffffffffffffffff1602179055506207a120600e556106a4600f5561271060105561012c6011556101f46012556101f460135560c860145560006015556000601660006101000a81548173ffffffffffffffffffffffffffffffffffffffff021916908373ffffffffffffffffffffffffffffffffffffffff1602179055506000601760006101000a81548173ffffffffffffffffffffffffffffffffffffffff021916908373ffffffffffffffffffffffffffffffffffffffff1602179055506000601860006101000a81548173ffffffffffffffffffffffffffffffffffffffff021916908373ffffffffffffffffffffffffffffffffffffffff16021790555060056019556064601a5562000263606460025462000bfc60201b620026551790919060201c565b601b5562000283602860025462000bfc60201b620026551790919060201c565b601c5560c860235560646024556107086025556000602760006101000a81548160ff0219169083151502179055506001602e60006101000a81548160ff0219169083151502179055506103e8600254620002de919062000f10565b602f55348015620002ee57600080fd5b50604051620078b0380380620078b0833981810160405281019062000314919062000e2b565b620003346200032862000c1460201b60201c565b62000c1c60201b60201c565b60018060003373ffffffffffffffffffffffffffffffffffffffff1673ffffffffffffffffffffffffffffffffffffffff16815260200190815260200160002060006101000a81548160ff02191690831515021790555080600760006101000a81548173ffffffffffffffffffffffffffffffffffffffff021916908373ffffffffffffffffffffffffffffffffffffffff16021790555033601660006101000a81548173ffffffffffffffffffffffffffffffffffffffff021916908373ffffffffffffffffffffffffffffffffffffffff16021790555081601760006101000a81548173ffffffffffffffffffffffffffffffffffffffff021916908373ffffffffffffffffffffffffffffffffffffffff16021790555033601860006101000a81548173ffffffffffffffffffffffffffffffffffffffff021916908373ffffffffffffffffffffffffffffffffffffffff16021790555082600a60006101000a81548173ffffffffffffffffffffffffffffffffffffffff021916908373ffffffffffffffffffffffffffffffffffffffff16021790555082600960006101000a81548173ffffffffffffffffffffffffffffffffffffffff021916908373ffffffffffffffffffffffffffffffffffffffff160217905550600960009054906101000a900473ffffffffffffffffffffffffffffffffffffffff1673ffffffffffffffffffffffffffffffffffffffff1663c45a01556040518163ffffffff1660e01b815260040160206040518083038186803b1580156200057a57600080fd5b505afa1580156200058f573d6000803e3d6000fd5b505050506040513d601f19601f82011682018060405250810190620005b5919062000df9565b73ffffffffffffffffffffffffffffffffffffffff1663c9c65396600860009054906101000a900473ffffffffffffffffffffffffffffffffffffffff16306040518363ffffffff1660e01b81526004016200061392919062000ec6565b602060405180830381600087803b1580156200062e57600080fd5b505af115801562000643573d6000803e3d6000fd5b505050506040513d601f19601f8201168201806040525081019062000669919062000df9565b600b60006101000a81548173ffffffffffffffffffffffffffffffffffffffff021916908373ffffffffffffffffffffffffffffffffffffffff1602179055507fffffffffffffffffffffffffffffffffffffffffffffffffffffffffffffffff600460003073ffffffffffffffffffffffffffffffffffffffff1673ffffffffffffffffffffffffffffffffffffffff16815260200190815260200160002060008573ffffffffffffffffffffffffffffffffffffffff1673ffffffffffffffffffffffffffffffffffffffff1681526020019081526020016000208190555082604051620007599062000dd4565b62000765919062000ea9565b604051809103906000f08015801562000782573d6000803e3d6000fd5b50600c60006101000a81548173ffffffffffffffffffffffffffffffffffffffff021916908373ffffffffffffffffffffffffffffffffffffffff160217905550600c60009054906101000a900473ffffffffffffffffffffffffffffffffffffffff16600d60006101000a81548173ffffffffffffffffffffffffffffffffffffffff021916908373ffffffffffffffffffffffffffffffffffffffff1602179055506001601d60003373ffffffffffffffffffffffffffffffffffffffff1673ffffffffffffffffffffffffffffffffffffffff16815260200190815260200160002060006101000a81548160ff0219169083151502179055506001601e60003373ffffffffffffffffffffffffffffffffffffffff1673ffffffffffffffffffffffffffffffffffffffff16815260200190815260200160002060006101000a81548160ff0219169083151502179055506001601f6000600b60009054906101000a900473ffffffffffffffffffffffffffffffffffffffff1673ffffffffffffffffffffffffffffffffffffffff1673ffffffffffffffffffffffffffffffffffffffff16815260200190815260200160002060006101000a81548160ff0219169083151502179055506001601f60003073ffffffffffffffffffffffffffffffffffffffff1673ffffffffffffffffffffffffffffffffffffffff16815260200190815260200160002060006101000a81548160ff0219169083151502179055506001601f6000600560009054906101000a900473ffffffffffffffffffffffffffffffffffffffff1673ffffffffffffffffffffffffffffffffffffffff1673ffffffffffffffffffffffffffffffffffffffff16815260200190815260200160002060006101000a81548160ff0219169083151502179055506001602860003373ffffffffffffffffffffffffffffffffffffffff1673ffffffffffffffffffffffffffffffffffffffff16815260200190815260200160002060006101000a81548160ff02191690831515021790555033601660006101000a81548173ffffffffffffffffffffffffffffffffffffffff021916908373ffffffffffffffffffffffffffffffffffffffff16021790555062000aed837fffffffffffffffffffffffffffffffffffffffffffffffffffffffffffffffff62000ce060201b60201c565b5062000b42600b60009054906101000a900473ffffffffffffffffffffffffffffffffffffffff167fffffffffffffffffffffffffffffffffffffffffffffffffffffffffffffffff62000ce060201b60201c565b50600254600360003373ffffffffffffffffffffffffffffffffffffffff1673ffffffffffffffffffffffffffffffffffffffff168152602001908152602001600020819055503373ffffffffffffffffffffffffffffffffffffffff16600073ffffffffffffffffffffffffffffffffffffffff167fddf252ad1be2c89b69c2b068fc378daa952ba7f163c4a11628f55a4df523b3ef60025460405162000beb919062000ef3565b60405180910390a350505062001216565b6000818362000c0c919062000f10565b905092915050565b600033905090565b60008060009054906101000a900473ffffffffffffffffffffffffffffffffffffffff169050816000806101000a81548173ffffffffffffffffffffffffffffffffffffffff021916908373ffffffffffffffffffffffffffffffffffffffff1602179055508173ffffffffffffffffffffffffffffffffffffffff168173ffffffffffffffffffffffffffffffffffffffff167f8be0079c531659141344cd1fd0a4f28419497f9722a3daafe3b4186f6b6457e060405160405180910390a35050565b600081600460003373ffffffffffffffffffffffffffffffffffffffff1673ffffffffffffffffffffffffffffffffffffffff16815260200190815260200160002060008573ffffffffffffffffffffffffffffffffffffffff1673ffffffffffffffffffffffffffffffffffffffff168152602001908152602001600020819055508273ffffffffffffffffffffffffffffffffffffffff163373ffffffffffffffffffffffffffffffffffffffff167f8c5be1e5ebec7d5bd14f71427d1e84f3dd0314c0f7b2291e5b200ac8c7c3b9258460405162000dc2919062000ef3565b60405180910390a36001905092915050565b611d488062005b6883390190565b60008151905062000df381620011fc565b92915050565b60006020828403121562000e125762000e11620011ea565b5b600062000e228482850162000de2565b91505092915050565b60008060006060848603121562000e475762000e46620011ea565b5b600062000e578682870162000de2565b935050602062000e6a8682870162000de2565b925050604062000e7d8682870162000de2565b9150509250925092565b62000e928162001141565b82525050565b62000ea38162001175565b82525050565b600060208201905062000ec0600083018462000e87565b92915050565b600060408201905062000edd600083018562000e87565b62000eec602083018462000e87565b9392505050565b600060208201905062000f0a600083018462000e98565b92915050565b600062000f1d8262001175565b915062000f2a8362001175565b92508262000f3d5762000f3c620011bb565b5b828204905092915050565b6000808291508390505b600185111562000f9a5780860481111562000f725762000f716200118c565b5b600185161562000f825780820291505b808102905062000f9285620011ef565b945062000f52565b94509492505050565b600062000fb08262001175565b915062000fbd836200117f565b925062000fec7fffffffffffffffffffffffffffffffffffffffffffffffffffffffffffffffff848462000ff4565b905092915050565b600082620010065760019050620010d9565b81620010165760009050620010d9565b81600181146200102f57600281146200103a5762001070565b6001915050620010d9565b60ff8411156200104f576200104e6200118c565b5b8360020a9150848211156200106957620010686200118c565b5b50620010d9565b5060208310610133831016604e8410600b8410161715620010aa5782820a905083811115620010a457620010a36200118c565b5b620010d9565b620010b9848484600162000f48565b92509050818404811115620010d357620010d26200118c565b5b81810290505b9392505050565b6000620010ed8262001175565b9150620010fa8362001175565b9250817fffffffffffffffffffffffffffffffffffffffffffffffffffffffffffffffff04831182151516156200113657620011356200118c565b5b828202905092915050565b60006200114e8262001155565b9050919050565b600073ffffffffffffffffffffffffffffffffffffffff82169050919050565b6000819050919050565b600060ff82169050919050565b7f4e487b7100000000000000000000000000000000000000000000000000000000600052601160045260246000fd5b7f4e487b7100000000000000000000000000000000000000000000000000000000600052601260045260246000fd5b600080fd5b60008160011c9050919050565b620012078162001141565b81146200121357600080fd5b50565b61494280620012266000396000f3fe60806040526004361061037a5760003560e01c80637d1db4a5116101d1578063bf56b37111610102578063e91f214e116100a0578063f708a64f1161006f578063f708a64f14610cb1578063f84ba65d14610cda578063f887ea4014610d03578063fe9fbb8014610d2e57610381565b8063e91f214e14610c09578063e96fada214610c34578063f0b37c0414610c5f578063f2fde38b14610c8857610381565b8063ca33e64c116100dc578063ca33e64c14610b3b578063d51ed1c814610b66578063dd62ed3e14610ba3578063df20fd4914610be057610381565b8063bf56b37114610ace578063c1826d7814610af9578063c6d2577d14610b1057610381565b8063a51af4c51161016f578063ace1178311610149578063ace1178314610a26578063b10abe4414610a63578063b210b06d14610a8e578063b6a5d7de14610aa557610381565b8063a51af4c514610993578063a8aa1b31146109be578063a9059cbb146109e957610381565b80638da5cb5b116101ab5780638da5cb5b146108eb57806395d89b41146109165780639d1944f514610941578063a4b45c001461096a57610381565b80637d1db4a51461086c57806382247ec01461089757806389ef69f6146108c257610381565b80632b112e49116102ab5780635c85974f116102495780636ddd1713116102235780636ddd1713146107c257806370a08231146107ed578063715018a61461082a5780637ae316d01461084157610381565b80635c85974f146107475780635d0044ca14610770578063658d4b7f1461079957610381565b80633268cc56116102855780633268cc561461068b5780633425c001146106b65780633bb8a8d4146106df578063571ac8b01461070a57610381565b80632b112e491461060c5780632d48e89614610637578063313ce5671461066057610381565b80631161ae39116103185780632119fd5a116102f25780632119fd5a1461055057806321dbe8761461057b5780632375ce40146105a657806323b872dd146105cf57610381565b80631161ae39146104bf57806318160ddd146104fc578063201e79911461052757610381565b806304a66b481161035457806304a66b48146103f157806306fdde031461041a57806307c89fe814610445578063095ea7b31461048257610381565b806301339c21146103865780630445b6671461039d578063048c7baf146103c857610381565b3661038157005b600080fd5b34801561039257600080fd5b5061039b610d6b565b005b3480156103a957600080fd5b506103b2610e08565b6040516103bf91906143e6565b60405180910390f35b3480156103d457600080fd5b506103ef60048036038101906103ea9190613dd5565b610e0e565b005b3480156103fd57600080fd5b5061041860048036038101906104139190613f4f565b610e9a565b005b34801561042657600080fd5b5061042f610f65565b60405161043c9190614304565b60405180910390f35b34801561045157600080fd5b5061046c60048036038101906104679190613c55565b610fa2565b6040516104799190614282565b60405180910390f35b34801561048e57600080fd5b506104a960048036038101906104a49190613d55565b611074565b6040516104b69190614282565b60405180910390f35b3480156104cb57600080fd5b506104e660048036038101906104e19190613e69565b611166565b6040516104f39190614282565b60405180910390f35b34801561050857600080fd5b5061051161117b565b60405161051e91906143e6565b60405180910390f35b34801561053357600080fd5b5061054e60048036038101906105499190613e69565b611185565b005b34801561055c57600080fd5b506105656111df565b60405161057291906141b4565b60405180910390f35b34801561058757600080fd5b50610590611205565b60405161059d91906141b4565b60405180910390f35b3480156105b257600080fd5b506105cd60048036038101906105c89190613ea9565b61122b565b005b3480156105db57600080fd5b506105f660048036038101906105f19190613cc2565b6112b1565b6040516106039190614282565b60405180910390f35b34801561061857600080fd5b50610621611493565b60405161062e91906143e6565b60405180910390f35b34801561064357600080fd5b5061065e60048036038101906106599190613e69565b611515565b005b34801561066c57600080fd5b506106756115f0565b6040516106829190614484565b60405180910390f35b34801561069757600080fd5b506106a06115f9565b6040516106ad91906141b4565b60405180910390f35b3480156106c257600080fd5b506106dd60048036038101906106d89190613c55565b61161f565b005b3480156106eb57600080fd5b506106f46116f6565b6040516107019190614282565b60405180910390f35b34801561071657600080fd5b50610731600480360381019061072c9190613c55565b611709565b60405161073e9190614282565b60405180910390f35b34801561075357600080fd5b5061076e60048036038101906107699190613e3c565b61171e565b005b34801561077c57600080fd5b5061079760048036038101906107929190613e3c565b61178c565b005b3480156107a557600080fd5b506107c060048036038101906107bb9190613d15565b6117fa565b005b3480156107ce57600080fd5b506107d761189d565b6040516107e49190614282565b60405180910390f35b3480156107f957600080fd5b50610814600480360381019061080f9190613c55565b6118b0565b60405161082191906143e6565b60405180910390f35b34801561083657600080fd5b5061083f6118f9565b005b34801561084d57600080fd5b50610856611981565b60405161086391906143e6565b60405180910390f35b34801561087857600080fd5b5061088161198b565b60405161088e91906143e6565b60405180910390f35b3480156108a357600080fd5b506108ac611991565b6040516108b991906143e6565b60405180910390f35b3480156108ce57600080fd5b506108e960048036038101906108e49190613c55565b611997565b005b3480156108f757600080fd5b50610900611a6e565b60405161090d91906141b4565b60405180910390f35b34801561092257600080fd5b5061092b611a97565b6040516109389190614304565b60405180910390f35b34801561094d57600080fd5b5061096860048036038101906109639190613e3c565b611ad4565b005b34801561097657600080fd5b50610991600480360381019061098c9190613c82565b611b35565b005b34801561099f57600080fd5b506109a8611c03565b6040516109b591906141b4565b60405180910390f35b3480156109ca57600080fd5b506109d3611c29565b6040516109e091906141b4565b60405180910390f35b3480156109f557600080fd5b50610a106004803603810190610a0b9190613d55565b611c4f565b604051610a1d9190614282565b60405180910390f35b348015610a3257600080fd5b50610a4d6004803603810190610a489190613c55565b611c64565b604051610a5a9190614282565b60405180910390f35b348015610a6f57600080fd5b50610a78611c83565b604051610a8591906141b4565b60405180910390f35b348015610a9a57600080fd5b50610aa3611ca9565b005b348015610ab157600080fd5b50610acc6004803603810190610ac79190613c55565b611cfb565b005b348015610ada57600080fd5b50610ae3611dd1565b604051610af091906143e6565b60405180910390f35b348015610b0557600080fd5b50610b0e611dd7565b005b348015610b1c57600080fd5b50610b25611ea2565b604051610b3291906143e6565b60405180910390f35b348015610b4757600080fd5b50610b50611ea8565b604051610b5d91906141b4565b60405180910390f35b348015610b7257600080fd5b50610b8d6004803603810190610b889190613e3c565b611ece565b604051610b9a91906143e6565b60405180910390f35b348015610baf57600080fd5b50610bca6004803603810190610bc59190613c82565b611f40565b604051610bd791906143e6565b60405180910390f35b348015610bec57600080fd5b50610c076004803603810190610c029190613d95565b611fc7565b005b348015610c1557600080fd5b50610c1e612034565b604051610c2b91906143e6565b60405180910390f35b348015610c4057600080fd5b50610c4961204a565b604051610c5691906141b4565b60405180910390f35b348015610c6b57600080fd5b50610c866004803603810190610c819190613c55565b612070565b005b348015610c9457600080fd5b50610caf6004803603810190610caa9190613c55565b612147565b005b348015610cbd57600080fd5b50610cd86004803603810190610cd39190613d15565b612296565b005b348015610ce657600080fd5b50610d016004803603810190610cfc9190613d15565b612536565b005b348015610d0f57600080fd5b50610d186125d9565b604051610d25919061429d565b60405180910390f35b348015610d3a57600080fd5b50610d556004803603810190610d509190613c55565b6125ff565b604051610d629190614282565b60405180910390f35b610d74336125ff565b610db3576040517f08c379a0000000000000000000000000000000000000000000000000000000008152600401610daa906143c6565b60405180910390fd5b600060215414610df8576040517f08c379a0000000000000000000000000000000000000000000000000000000008152600401610def90614386565b60405180910390fd5b4360218190555042602281905550565b602f5481565b610e17336125ff565b610e56576040517f08c379a0000000000000000000000000000000000000000000000000000000008152600401610e4d906143c6565b60405180910390fd5b83602760006101000a81548160ff021916908315150217905550826029819055506000602a8190555081602b8190555080602c8190555043602d8190555050505050565b610ea3336125ff565b610ee2576040517f08c379a0000000000000000000000000000000000000000000000000000000008152600401610ed9906143c6565b60405180910390fd5b84601181905550836015819055508260128190555081601381905550610f3582610f2785610f19888a61266b90919063ffffffff16565b61266b90919063ffffffff16565b61266b90919063ffffffff16565b600f81905550806010819055506004601054610f51919061454a565b600f5410610f5e57600080fd5b5050505050565b60606040518060400160405280600481526020017f566f696400000000000000000000000000000000000000000000000000000000815250905090565b6000610fac612681565b73ffffffffffffffffffffffffffffffffffffffff16610fca611a6e565b73ffffffffffffffffffffffffffffffffffffffff1614611020576040517f08c379a0000000000000000000000000000000000000000000000000000000008152600401611017906143a6565b60405180910390fd5b602060008373ffffffffffffffffffffffffffffffffffffffff1673ffffffffffffffffffffffffffffffffffffffff16815260200190815260200160002060009054906101000a900460ff169050919050565b600081600460003373ffffffffffffffffffffffffffffffffffffffff1673ffffffffffffffffffffffffffffffffffffffff16815260200190815260200160002060008573ffffffffffffffffffffffffffffffffffffffff1673ffffffffffffffffffffffffffffffffffffffff168152602001908152602001600020819055508273ffffffffffffffffffffffffffffffffffffffff163373ffffffffffffffffffffffffffffffffffffffff167f8c5be1e5ebec7d5bd14f71427d1e84f3dd0314c0f7b2291e5b200ac8c7c3b9258460405161115491906143e6565b60405180910390a36001905092915050565b60008261117283611ece565b11905092915050565b6000600254905090565b61118e336125ff565b6111cd576040517f08c379a00000000000000000000000000000000000000000000000000000000081526004016111c4906143c6565b60405180910390fd5b8160198190555080601a819055505050565b601860009054906101000a900473ffffffffffffffffffffffffffffffffffffffff1681565b600860009054906101000a900473ffffffffffffffffffffffffffffffffffffffff1681565b611234336125ff565b611273576040517f08c379a000000000000000000000000000000000000000000000000000000000815260040161126a906143c6565b60405180910390fd5b60028284611281919061454a565b1115801561128e57508183115b61129757600080fd5b826023819055508160248190555080602581905550505050565b6000600254600460008673ffffffffffffffffffffffffffffffffffffffff1673ffffffffffffffffffffffffffffffffffffffff16815260200190815260200160002060003373ffffffffffffffffffffffffffffffffffffffff1673ffffffffffffffffffffffffffffffffffffffff168152602001908152602001600020541461147f576113fe826040518060400160405280601681526020017f496e73756666696369656e7420416c6c6f77616e636500000000000000000000815250600460008873ffffffffffffffffffffffffffffffffffffffff1673ffffffffffffffffffffffffffffffffffffffff16815260200190815260200160002060003373ffffffffffffffffffffffffffffffffffffffff1673ffffffffffffffffffffffffffffffffffffffff168152602001908152602001600020546126899092919063ffffffff16565b600460008673ffffffffffffffffffffffffffffffffffffffff1673ffffffffffffffffffffffffffffffffffffffff16815260200190815260200160002060003373ffffffffffffffffffffffffffffffffffffffff1673ffffffffffffffffffffffffffffffffffffffff168152602001908152602001600020819055505b61148a8484846126de565b90509392505050565b60006115106114c3600660009054906101000a900473ffffffffffffffffffffffffffffffffffffffff166118b0565b6115026114f1600560009054906101000a900473ffffffffffffffffffffffffffffffffffffffff166118b0565b600254612dab90919063ffffffff16565b612dab90919063ffffffff16565b905090565b61151e336125ff565b61155d576040517f08c379a0000000000000000000000000000000000000000000000000000000008152600401611554906143c6565b60405180910390fd5b600c60009054906101000a900473ffffffffffffffffffffffffffffffffffffffff1673ffffffffffffffffffffffffffffffffffffffff16632d48e89683836040518363ffffffff1660e01b81526004016115ba92919061445b565b600060405180830381600087803b1580156115d457600080fd5b505af11580156115e8573d6000803e3d6000fd5b505050505050565b60006009905090565b600a60009054906101000a900473ffffffffffffffffffffffffffffffffffffffff1681565b611627612681565b73ffffffffffffffffffffffffffffffffffffffff16611645611a6e565b73ffffffffffffffffffffffffffffffffffffffff161461169b576040517f08c379a0000000000000000000000000000000000000000000000000000000008152600401611692906143a6565b60405180910390fd5b6000602060008373ffffffffffffffffffffffffffffffffffffffff1673ffffffffffffffffffffffffffffffffffffffff16815260200190815260200160002060006101000a81548160ff02191690831515021790555050565b602760009054906101000a900460ff1681565b600061171782600254611074565b9050919050565b611727336125ff565b611766576040517f08c379a000000000000000000000000000000000000000000000000000000000815260040161175d906143c6565b60405180910390fd5b6103e8600254611776919061454a565b81101561178257600080fd5b80601b8190555050565b611795336125ff565b6117d4576040517f08c379a00000000000000000000000000000000000000000000000000000000081526004016117cb906143c6565b60405180910390fd5b6103e86002546117e4919061454a565b8110156117f057600080fd5b80601c8190555050565b611803336125ff565b611842576040517f08c379a0000000000000000000000000000000000000000000000000000000008152600401611839906143c6565b60405180910390fd5b80601d60008473ffffffffffffffffffffffffffffffffffffffff1673ffffffffffffffffffffffffffffffffffffffff16815260200190815260200160002060006101000a81548160ff0219169083151502179055505050565b602e60009054906101000a900460ff1681565b6000600360008373ffffffffffffffffffffffffffffffffffffffff1673ffffffffffffffffffffffffffffffffffffffff168152602001908152602001600020549050919050565b611901612681565b73ffffffffffffffffffffffffffffffffffffffff1661191f611a6e565b73ffffffffffffffffffffffffffffffffffffffff1614611975576040517f08c379a000000000000000000000000000000000000000000000000000000000815260040161196c906143a6565b60405180910390fd5b61197f6000612dc1565b565b6000600f54905090565b601b5481565b601c5481565b61199f612681565b73ffffffffffffffffffffffffffffffffffffffff166119bd611a6e565b73ffffffffffffffffffffffffffffffffffffffff1614611a13576040517f08c379a0000000000000000000000000000000000000000000000000000000008152600401611a0a906143a6565b60405180910390fd5b6001602060008373ffffffffffffffffffffffffffffffffffffffff1673ffffffffffffffffffffffffffffffffffffffff16815260200190815260200160002060006101000a81548160ff02191690831515021790555050565b60008060009054906101000a900473ffffffffffffffffffffffffffffffffffffffff16905090565b60606040518060400160405280600481526020017f564f494400000000000000000000000000000000000000000000000000000000815250905090565b611add336125ff565b611b1c576040517f08c379a0000000000000000000000000000000000000000000000000000000008152600401611b13906143c6565b60405180910390fd5b620b71b08110611b2b57600080fd5b80600e8190555050565b611b3e336125ff565b611b7d576040517f08c379a0000000000000000000000000000000000000000000000000000000008152600401611b74906143c6565b60405180910390fd5b81601660006101000a81548173ffffffffffffffffffffffffffffffffffffffff021916908373ffffffffffffffffffffffffffffffffffffffff16021790555080601760006101000a81548173ffffffffffffffffffffffffffffffffffffffff021916908373ffffffffffffffffffffffffffffffffffffffff1602179055505050565b600d60009054906101000a900473ffffffffffffffffffffffffffffffffffffffff1681565b600b60009054906101000a900473ffffffffffffffffffffffffffffffffffffffff1681565b6000611c5c3384846126de565b905092915050565b602080528060005260406000206000915054906101000a900460ff1681565b600760009054906101000a900473ffffffffffffffffffffffffffffffffffffffff1681565b611cb2336125ff565b611cf1576040517f08c379a0000000000000000000000000000000000000000000000000000000008152600401611ce8906143c6565b60405180910390fd5b6000602681905550565b611d03612681565b73ffffffffffffffffffffffffffffffffffffffff16611d21611a6e565b73ffffffffffffffffffffffffffffffffffffffff1614611d77576040517f08c379a0000000000000000000000000000000000000000000000000000000008152600401611d6e906143a6565b60405180910390fd5b60018060008373ffffffffffffffffffffffffffffffffffffffff1673ffffffffffffffffffffffffffffffffffffffff16815260200190815260200160002060006101000a81548160ff02191690831515021790555050565b60215481565b611ddf612681565b73ffffffffffffffffffffffffffffffffffffffff16611dfd611a6e565b73ffffffffffffffffffffffffffffffffffffffff1614611e53576040517f08c379a0000000000000000000000000000000000000000000000000000000008152600401611e4a906143a6565b60405180910390fd5b60004790503373ffffffffffffffffffffffffffffffffffffffff166108fc829081150290604051600060405180830381858888f19350505050158015611e9e573d6000803e3d6000fd5b5050565b60225481565b601660009054906101000a900473ffffffffffffffffffffffffffffffffffffffff1681565b6000611f39611edb611493565b611f2b611f1c6002611f0e600b60009054906101000a900473ffffffffffffffffffffffffffffffffffffffff166118b0565b612e8590919063ffffffff16565b85612e8590919063ffffffff16565b61265590919063ffffffff16565b9050919050565b6000600460008473ffffffffffffffffffffffffffffffffffffffff1673ffffffffffffffffffffffffffffffffffffffff16815260200190815260200160002060008373ffffffffffffffffffffffffffffffffffffffff1673ffffffffffffffffffffffffffffffffffffffff16815260200190815260200160002054905092915050565b611fd0336125ff565b61200f576040517f08c379a0000000000000000000000000000000000000000000000000000000008152600401612006906143c6565b60405180910390fd5b81602e60006101000a81548160ff02191690831515021790555080602f819055505050565b6fffffffffffffffffffffffffffffffff801681565b601760009054906101000a900473ffffffffffffffffffffffffffffffffffffffff1681565b612078612681565b73ffffffffffffffffffffffffffffffffffffffff16612096611a6e565b73ffffffffffffffffffffffffffffffffffffffff16146120ec576040517f08c379a00000000000000000000000000000000000000000000000000000000081526004016120e3906143a6565b60405180910390fd5b6000600160008373ffffffffffffffffffffffffffffffffffffffff1673ffffffffffffffffffffffffffffffffffffffff16815260200190815260200160002060006101000a81548160ff02191690831515021790555050565b61214f612681565b73ffffffffffffffffffffffffffffffffffffffff1661216d611a6e565b73ffffffffffffffffffffffffffffffffffffffff16146121c3576040517f08c379a00000000000000000000000000000000000000000000000000000000081526004016121ba906143a6565b60405180910390fd5b600073ffffffffffffffffffffffffffffffffffffffff168173ffffffffffffffffffffffffffffffffffffffff161415612233576040517f08c379a000000000000000000000000000000000000000000000000000000000815260040161222a90614346565b60405180910390fd5b60018060008373ffffffffffffffffffffffffffffffffffffffff1673ffffffffffffffffffffffffffffffffffffffff16815260200190815260200160002060006101000a81548160ff02191690831515021790555061229381612dc1565b50565b61229f336125ff565b6122de576040517f08c379a00000000000000000000000000000000000000000000000000000000081526004016122d5906143c6565b60405180910390fd5b3073ffffffffffffffffffffffffffffffffffffffff168273ffffffffffffffffffffffffffffffffffffffff16141580156123685750600b60009054906101000a900473ffffffffffffffffffffffffffffffffffffffff1673ffffffffffffffffffffffffffffffffffffffff168273ffffffffffffffffffffffffffffffffffffffff1614155b61237157600080fd5b80601f60008473ffffffffffffffffffffffffffffffffffffffff1673ffffffffffffffffffffffffffffffffffffffff16815260200190815260200160002060006101000a81548160ff021916908315150217905550801561246357600c60009054906101000a900473ffffffffffffffffffffffffffffffffffffffff1673ffffffffffffffffffffffffffffffffffffffff166314b6ca968360006040518363ffffffff1660e01b815260040161242c9291906141cf565b600060405180830381600087803b15801561244657600080fd5b505af115801561245a573d6000803e3d6000fd5b50505050612532565b600c60009054906101000a900473ffffffffffffffffffffffffffffffffffffffff1673ffffffffffffffffffffffffffffffffffffffff166314b6ca9683600360008673ffffffffffffffffffffffffffffffffffffffff1673ffffffffffffffffffffffffffffffffffffffff168152602001908152602001600020546040518363ffffffff1660e01b81526004016124ff9291906141f8565b600060405180830381600087803b15801561251957600080fd5b505af115801561252d573d6000803e3d6000fd5b505050505b5050565b61253f336125ff565b61257e576040517f08c379a0000000000000000000000000000000000000000000000000000000008152600401612575906143c6565b60405180910390fd5b80601e60008473ffffffffffffffffffffffffffffffffffffffff1673ffffffffffffffffffffffffffffffffffffffff16815260200190815260200160002060006101000a81548160ff0219169083151502179055505050565b600960009054906101000a900473ffffffffffffffffffffffffffffffffffffffff1681565b6000600160008373ffffffffffffffffffffffffffffffffffffffff1673ffffffffffffffffffffffffffffffffffffffff16815260200190815260200160002060009054906101000a900460ff169050919050565b60008183612663919061454a565b905092915050565b6000818361267991906144f4565b905092915050565b600033905090565b60008383111582906126d1576040517f08c379a00000000000000000000000000000000000000000000000000000000081526004016126c89190614304565b60405180910390fd5b5082840390509392505050565b6000603060009054906101000a900460ff161561270757612700848484612e9b565b9050612da4565b6000600b60009054906101000a900473ffffffffffffffffffffffffffffffffffffffff1673ffffffffffffffffffffffffffffffffffffffff168473ffffffffffffffffffffffffffffffffffffffff1614806127b25750600a60009054906101000a900473ffffffffffffffffffffffffffffffffffffffff1673ffffffffffffffffffffffffffffffffffffffff168473ffffffffffffffffffffffffffffffffffffffff16145b90506127be8584613009565b801580156128165750602060008573ffffffffffffffffffffffffffffffffffffffff1673ffffffffffffffffffffffffffffffffffffffff16815260200190815260200160002060009054906101000a900460ff16155b156128aa57601c5483600360008773ffffffffffffffffffffffffffffffffffffffff1673ffffffffffffffffffffffffffffffffffffffff1681526020019081526020016000205461286991906144f4565b106128a9576040517f08c379a00000000000000000000000000000000000000000000000000000000081526004016128a090614366565b60405180910390fd5b5b80156128dd576128b86130a6565b156128c6576128c561317d565b5b6128ce613759565b156128dc576128db61380c565b5b5b612966836040518060400160405280601481526020017f496e73756666696369656e742042616c616e6365000000000000000000000000815250600360008973ffffffffffffffffffffffffffffffffffffffff1673ffffffffffffffffffffffffffffffffffffffff168152602001908152602001600020546126899092919063ffffffff16565b600360008773ffffffffffffffffffffffffffffffffffffffff1673ffffffffffffffffffffffffffffffffffffffff1681526020019081526020016000208190555060006129b486613888565b6129be57836129c9565b6129c886856138df565b5b9050612a1d81600360008873ffffffffffffffffffffffffffffffffffffffff1673ffffffffffffffffffffffffffffffffffffffff1681526020019081526020016000205461266b90919063ffffffff16565b600360008773ffffffffffffffffffffffffffffffffffffffff1673ffffffffffffffffffffffffffffffffffffffff16815260200190815260200160002081905550601f60008773ffffffffffffffffffffffffffffffffffffffff1673ffffffffffffffffffffffffffffffffffffffff16815260200190815260200160002060009054906101000a900460ff16612b8357600c60009054906101000a900473ffffffffffffffffffffffffffffffffffffffff1673ffffffffffffffffffffffffffffffffffffffff166314b6ca9687600360008a73ffffffffffffffffffffffffffffffffffffffff1673ffffffffffffffffffffffffffffffffffffffff168152602001908152602001600020546040518363ffffffff1660e01b8152600401612b4d9291906141f8565b600060405180830381600087803b158015612b6757600080fd5b505af1925050508015612b78575060015b612b8157612b82565b5b5b601f60008673ffffffffffffffffffffffffffffffffffffffff1673ffffffffffffffffffffffffffffffffffffffff16815260200190815260200160002060009054906101000a900460ff16612ca657600c60009054906101000a900473ffffffffffffffffffffffffffffffffffffffff1673ffffffffffffffffffffffffffffffffffffffff166314b6ca9686600360008973ffffffffffffffffffffffffffffffffffffffff1673ffffffffffffffffffffffffffffffffffffffff168152602001908152602001600020546040518363ffffffff1660e01b8152600401612c709291906141f8565b600060405180830381600087803b158015612c8a57600080fd5b505af1925050508015612c9b575060015b612ca457612ca5565b5b5b600c60009054906101000a900473ffffffffffffffffffffffffffffffffffffffff1673ffffffffffffffffffffffffffffffffffffffff1663ffb2c479600e546040518263ffffffff1660e01b8152600401612d0391906143e6565b600060405180830381600087803b158015612d1d57600080fd5b505af1925050508015612d2e575060015b612d3757612d38565b5b8473ffffffffffffffffffffffffffffffffffffffff168673ffffffffffffffffffffffffffffffffffffffff167fddf252ad1be2c89b69c2b068fc378daa952ba7f163c4a11628f55a4df523b3ef83604051612d9591906143e6565b60405180910390a36001925050505b9392505050565b60008183612db991906145d5565b905092915050565b60008060009054906101000a900473ffffffffffffffffffffffffffffffffffffffff169050816000806101000a81548173ffffffffffffffffffffffffffffffffffffffff021916908373ffffffffffffffffffffffffffffffffffffffff1602179055508173ffffffffffffffffffffffffffffffffffffffff168173ffffffffffffffffffffffffffffffffffffffff167f8be0079c531659141344cd1fd0a4f28419497f9722a3daafe3b4186f6b6457e060405160405180910390a35050565b60008183612e93919061457b565b905092915050565b6000612f26826040518060400160405280601481526020017f496e73756666696369656e742042616c616e6365000000000000000000000000815250600360008873ffffffffffffffffffffffffffffffffffffffff1673ffffffffffffffffffffffffffffffffffffffff168152602001908152602001600020546126899092919063ffffffff16565b600360008673ffffffffffffffffffffffffffffffffffffffff1673ffffffffffffffffffffffffffffffffffffffff16815260200190815260200160002081905550612fbb82600360008673ffffffffffffffffffffffffffffffffffffffff1673ffffffffffffffffffffffffffffffffffffffff1681526020019081526020016000205461266b90919063ffffffff16565b600360008573ffffffffffffffffffffffffffffffffffffffff1673ffffffffffffffffffffffffffffffffffffffff16815260200190815260200160002081905550600190509392505050565b601b54811115806130635750601e60008373ffffffffffffffffffffffffffffffffffffffff1673ffffffffffffffffffffffffffffffffffffffff16815260200190815260200160002060009054906101000a900460ff165b6130a2576040517f08c379a000000000000000000000000000000000000000000000000000000000815260040161309990614326565b60405180910390fd5b5050565b6000600b60009054906101000a900473ffffffffffffffffffffffffffffffffffffffff1673ffffffffffffffffffffffffffffffffffffffff163373ffffffffffffffffffffffffffffffffffffffff16141580156131135750603060009054906101000a900460ff16155b801561312b5750602e60009054906101000a900460ff165b80156131785750602f54600360003073ffffffffffffffffffffffffffffffffffffffff1673ffffffffffffffffffffffffffffffffffffffff1681526020019081526020016000205410155b905090565b6001603060006101000a81548160ff02191690831515021790555060006131a8601954601a54611166565b6131b4576011546131b7565b60005b905060006131f760026131e9600f546131db86602f54612e8590919063ffffffff16565b61265590919063ffffffff16565b61265590919063ffffffff16565b9050600061321082602f54612dab90919063ffffffff16565b905060004790506000600267ffffffffffffffff81111561323457613233614766565b5b6040519080825280602002602001820160405280156132625781602001602082028036833780820191505090505b509050308160008151811061327a57613279614737565b5b602002602001019073ffffffffffffffffffffffffffffffffffffffff16908173ffffffffffffffffffffffffffffffffffffffff1681525050600860009054906101000a900473ffffffffffffffffffffffffffffffffffffffff16816001815181106132eb576132ea614737565b5b602002602001019073ffffffffffffffffffffffffffffffffffffffff16908173ffffffffffffffffffffffffffffffffffffffff1681525050600960009054906101000a900473ffffffffffffffffffffffffffffffffffffffff1673ffffffffffffffffffffffffffffffffffffffff1663791ac9478460008430426040518663ffffffff1660e01b8152600401613389959493929190614401565b600060405180830381600087803b1580156133a357600080fd5b505af11580156133b7573d6000803e3d6000fd5b5050505060006133d08347612dab90919063ffffffff16565b905060006133fc6133eb60028961265590919063ffffffff16565b600f54612dab90919063ffffffff16565b90506000613438600261342a8461341c8c88612e8590919063ffffffff16565b61265590919063ffffffff16565b61265590919063ffffffff16565b905060006134638361345560125487612e8590919063ffffffff16565b61265590919063ffffffff16565b9050600061348e8461348060135488612e8590919063ffffffff16565b61265590919063ffffffff16565b905060006134b9856134ab60145489612e8590919063ffffffff16565b61265590919063ffffffff16565b9050600c60009054906101000a900473ffffffffffffffffffffffffffffffffffffffff1673ffffffffffffffffffffffffffffffffffffffff1663d0e30db0846040518263ffffffff1660e01b81526004016000604051808303818588803b15801561352557600080fd5b505af1158015613539573d6000803e3d6000fd5b5050505050601760009054906101000a900473ffffffffffffffffffffffffffffffffffffffff1673ffffffffffffffffffffffffffffffffffffffff166108fc839081150290604051600060405180830381858888f193505050501580156135a6573d6000803e3d6000fd5b50601860009054906101000a900473ffffffffffffffffffffffffffffffffffffffff1673ffffffffffffffffffffffffffffffffffffffff166108fc829081150290604051600060405180830381858888f1935050505015801561360f573d6000803e3d6000fd5b5060008a111561373157600960009054906101000a900473ffffffffffffffffffffffffffffffffffffffff1673ffffffffffffffffffffffffffffffffffffffff1663f305d71985308d600080601660009054906101000a900473ffffffffffffffffffffffffffffffffffffffff16426040518863ffffffff1660e01b81526004016136a296959493929190614221565b6060604051808303818588803b1580156136bb57600080fd5b505af11580156136cf573d6000803e3d6000fd5b50505050506040513d601f19601f820116820180604052508101906136f49190613efc565b5050507f424db2872186fa7e7afa7a5e902ed3b49a2ef19c2f5431e672462495dd6b4506848b60405161372892919061445b565b60405180910390a15b50505050505050505050506000603060006101000a81548160ff021916908315150217905550565b6000600b60009054906101000a900473ffffffffffffffffffffffffffffffffffffffff1673ffffffffffffffffffffffffffffffffffffffff163373ffffffffffffffffffffffffffffffffffffffff16141580156137c65750603060009054906101000a900460ff16155b80156137de5750602760009054906101000a900460ff165b80156137f9575043602c54602d546137f691906144f4565b11155b80156138075750602b544710155b905090565b61383a602b54600560009054906101000a900473ffffffffffffffffffffffffffffffffffffffff16613a23565b43602d81905550613858602b54602a5461266b90919063ffffffff16565b602a81905550602954602a541115613886576000602760006101000a81548160ff0219169083151502179055505b565b6000601d60008373ffffffffffffffffffffffffffffffffffffffff1673ffffffffffffffffffffffffffffffffffffffff16815260200190815260200160002060009054906101000a900460ff16159050919050565b60008061390b6010546138fd600f5486612e8590919063ffffffff16565b61265590919063ffffffff16565b905061395f81600360003073ffffffffffffffffffffffffffffffffffffffff1673ffffffffffffffffffffffffffffffffffffffff1681526020019081526020016000205461266b90919063ffffffff16565b600360003073ffffffffffffffffffffffffffffffffffffffff1673ffffffffffffffffffffffffffffffffffffffff168152602001908152602001600020819055503073ffffffffffffffffffffffffffffffffffffffff168473ffffffffffffffffffffffffffffffffffffffff167fddf252ad1be2c89b69c2b068fc378daa952ba7f163c4a11628f55a4df523b3ef836040516139ff91906143e6565b60405180910390a3613a1a8184612dab90919063ffffffff16565b91505092915050565b6001603060006101000a81548160ff0219169083151502179055506000600267ffffffffffffffff811115613a5b57613a5a614766565b5b604051908082528060200260200182016040528015613a895781602001602082028036833780820191505090505b509050600860009054906101000a900473ffffffffffffffffffffffffffffffffffffffff1681600081518110613ac357613ac2614737565b5b602002602001019073ffffffffffffffffffffffffffffffffffffffff16908173ffffffffffffffffffffffffffffffffffffffff16815250503081600181518110613b1257613b11614737565b5b602002602001019073ffffffffffffffffffffffffffffffffffffffff16908173ffffffffffffffffffffffffffffffffffffffff1681525050600960009054906101000a900473ffffffffffffffffffffffffffffffffffffffff1673ffffffffffffffffffffffffffffffffffffffff1663b6f9de958460008486426040518663ffffffff1660e01b8152600401613baf94939291906142b8565b6000604051808303818588803b158015613bc857600080fd5b505af1158015613bdc573d6000803e3d6000fd5b5050505050506000603060006101000a81548160ff0219169083151502179055505050565b600081359050613c10816148c7565b92915050565b600081359050613c25816148de565b92915050565b600081359050613c3a816148f5565b92915050565b600081519050613c4f816148f5565b92915050565b600060208284031215613c6b57613c6a614795565b5b6000613c7984828501613c01565b91505092915050565b60008060408385031215613c9957613c98614795565b5b6000613ca785828601613c01565b9250506020613cb885828601613c01565b9150509250929050565b600080600060608486031215613cdb57613cda614795565b5b6000613ce986828701613c01565b9350506020613cfa86828701613c01565b9250506040613d0b86828701613c2b565b9150509250925092565b60008060408385031215613d2c57613d2b614795565b5b6000613d3a85828601613c01565b9250506020613d4b85828601613c16565b9150509250929050565b60008060408385031215613d6c57613d6b614795565b5b6000613d7a85828601613c01565b9250506020613d8b85828601613c2b565b9150509250929050565b60008060408385031215613dac57613dab614795565b5b6000613dba85828601613c16565b9250506020613dcb85828601613c2b565b9150509250929050565b60008060008060808587031215613def57613dee614795565b5b6000613dfd87828801613c16565b9450506020613e0e87828801613c2b565b9350506040613e1f87828801613c2b565b9250506060613e3087828801613c2b565b91505092959194509250565b600060208284031215613e5257613e51614795565b5b6000613e6084828501613c2b565b91505092915050565b60008060408385031215613e8057613e7f614795565b5b6000613e8e85828601613c2b565b9250506020613e9f85828601613c2b565b9150509250929050565b600080600060608486031215613ec257613ec1614795565b5b6000613ed086828701613c2b565b9350506020613ee186828701613c2b565b9250506040613ef286828701613c2b565b9150509250925092565b600080600060608486031215613f1557613f14614795565b5b6000613f2386828701613c40565b9350506020613f3486828701613c40565b9250506040613f4586828701613c40565b9150509250925092565b600080600080600060a08688031215613f6b57613f6a614795565b5b6000613f7988828901613c2b565b9550506020613f8a88828901613c2b565b9450506040613f9b88828901613c2b565b9350506060613fac88828901613c2b565b9250506080613fbd88828901613c2b565b9150509295509295909350565b6000613fd68383613fe2565b60208301905092915050565b613feb81614609565b82525050565b613ffa81614609565b82525050565b600061400b826144af565b61401581856144d2565b93506140208361449f565b8060005b838110156140515781516140388882613fca565b9750614043836144c5565b925050600181019050614024565b5085935050505092915050565b6140678161461b565b82525050565b6140768161465e565b82525050565b61408581614670565b82525050565b6000614096826144ba565b6140a081856144e3565b93506140b08185602086016146a6565b6140b98161479a565b840191505092915050565b60006140d16011836144e3565b91506140dc826147ab565b602082019050919050565b60006140f46026836144e3565b91506140ff826147d4565b604082019050919050565b6000614117601d836144e3565b915061412282614823565b602082019050919050565b600061413a6010836144e3565b91506141458261484c565b602082019050919050565b600061415d6020836144e3565b915061416882614875565b602082019050919050565b6000614180600b836144e3565b915061418b8261489e565b602082019050919050565b61419f81614647565b82525050565b6141ae81614651565b82525050565b60006020820190506141c96000830184613ff1565b92915050565b60006040820190506141e46000830185613ff1565b6141f1602083018461407c565b9392505050565b600060408201905061420d6000830185613ff1565b61421a6020830184614196565b9392505050565b600060c0820190506142366000830189613ff1565b6142436020830188614196565b614250604083018761407c565b61425d606083018661407c565b61426a6080830185613ff1565b61427760a0830184614196565b979650505050505050565b6000602082019050614297600083018461405e565b92915050565b60006020820190506142b2600083018461406d565b92915050565b60006080820190506142cd600083018761407c565b81810360208301526142df8186614000565b90506142ee6040830185613ff1565b6142fb6060830184614196565b95945050505050565b6000602082019050818103600083015261431e818461408b565b905092915050565b6000602082019050818103600083015261433f816140c4565b9050919050565b6000602082019050818103600083015261435f816140e7565b9050919050565b6000602082019050818103600083015261437f8161410a565b9050919050565b6000602082019050818103600083015261439f8161412d565b9050919050565b600060208201905081810360008301526143bf81614150565b9050919050565b600060208201905081810360008301526143df81614173565b9050919050565b60006020820190506143fb6000830184614196565b92915050565b600060a0820190506144166000830188614196565b614423602083018761407c565b81810360408301526144358186614000565b90506144446060830185613ff1565b6144516080830184614196565b9695505050505050565b60006040820190506144706000830185614196565b61447d6020830184614196565b9392505050565b600060208201905061449960008301846141a5565b92915050565b6000819050602082019050919050565b600081519050919050565b600081519050919050565b6000602082019050919050565b600082825260208201905092915050565b600082825260208201905092915050565b60006144ff82614647565b915061450a83614647565b9250827fffffffffffffffffffffffffffffffffffffffffffffffffffffffffffffffff0382111561453f5761453e6146d9565b5b828201905092915050565b600061455582614647565b915061456083614647565b9250826145705761456f614708565b5b828204905092915050565b600061458682614647565b915061459183614647565b9250817fffffffffffffffffffffffffffffffffffffffffffffffffffffffffffffffff04831182151516156145ca576145c96146d9565b5b828202905092915050565b60006145e082614647565b91506145eb83614647565b9250828210156145fe576145fd6146d9565b5b828203905092915050565b600061461482614627565b9050919050565b60008115159050919050565b600073ffffffffffffffffffffffffffffffffffffffff82169050919050565b6000819050919050565b600060ff82169050919050565b600061466982614682565b9050919050565b600061467b82614647565b9050919050565b600061468d82614694565b9050919050565b600061469f82614627565b9050919050565b60005b838110156146c45780820151818401526020810190506146a9565b838111156146d3576000848401525b50505050565b7f4e487b7100000000000000000000000000000000000000000000000000000000600052601160045260246000fd5b7f4e487b7100000000000000000000000000000000000000000000000000000000600052601260045260246000fd5b7f4e487b7100000000000000000000000000000000000000000000000000000000600052603260045260246000fd5b7f4e487b7100000000000000000000000000000000000000000000000000000000600052604160045260246000fd5b600080fd5b6000601f19601f8301169050919050565b7f5458204c696d6974204578636565646564000000000000000000000000000000600082015250565b7f4f776e61626c653a206e6577206f776e657220697320746865207a65726f206160008201527f6464726573730000000000000000000000000000000000000000000000000000602082015250565b7f4d61782077616c6c657420686173206265656e20747269676765726564000000600082015250565b7f416c7265616479206c61756e6368656400000000000000000000000000000000600082015250565b7f4f776e61626c653a2063616c6c6572206973206e6f7420746865206f776e6572600082015250565b7f21415554484f52495a4544000000000000000000000000000000000000000000600082015250565b6148d081614609565b81146148db57600080fd5b50565b6148e78161461b565b81146148f257600080fd5b50565b6148fe81614647565b811461490957600080fd5b5056fea26469706673582212206094c474022ebec1d7b4c4b786b2e8023dda85aec29179284397a73e17e6f43e64736f6c6343000807003360806040527382f0b8b456c1a451378467398982d4834b6829c1600160006101000a81548173ffffffffffffffffffffffffffffffffffffffff021916908373ffffffffffffffffffffffffffffffffffffffff1602179055507321be370d5312f44cb42ce377bc9b8a0cef1a4c83600260006101000a81548173ffffffffffffffffffffffffffffffffffffffff021916908373ffffffffffffffffffffffffffffffffffffffff1602179055506ec097ce7bc90715b34b9f1000000000600c556001600d55678ac7230489e80000600e55348015620000df57600080fd5b5060405162001d4838038062001d48833981810160405281019062000105919062000217565b600073ffffffffffffffffffffffffffffffffffffffff168173ffffffffffffffffffffffffffffffffffffffff16141562000178576040517f08c379a00000000000000000000000000000000000000000000000000000000081526004016200016f9062000270565b60405180910390fd5b80600360006101000a81548173ffffffffffffffffffffffffffffffffffffffff021916908373ffffffffffffffffffffffffffffffffffffffff160217905550336000806101000a81548173ffffffffffffffffffffffffffffffffffffffff021916908373ffffffffffffffffffffffffffffffffffffffff160217905550506200031f565b600081519050620002118162000305565b92915050565b60006020828403121562000230576200022f620002d7565b5b6000620002408482850162000200565b91505092915050565b60006200025860178362000292565b91506200026582620002dc565b602082019050919050565b600060208201905081810360008301526200028b8162000249565b9050919050565b600082825260208201905092915050565b6000620002b082620002b7565b9050919050565b600073ffffffffffffffffffffffffffffffffffffffff82169050919050565b600080fd5b7f5f726f75746572206973207a65726f2061646472657373000000000000000000600082015250565b6200031081620002a3565b81146200031c57600080fd5b50565b611a19806200032f6000396000f3fe6080604052600436106100dd5760003560e01c8063ce7c2ac21161007f578063efca2eed11610059578063efca2eed14610291578063f0fc6bca146102bc578063ffb2c479146102d3578063ffd49c84146102fc576100dd565b8063ce7c2ac21461021d578063d0e30db01461025c578063e2d2e21914610266576100dd565b80632d48e896116100bb5780632d48e896146101735780633a98ef391461019c5780634fab0ae8146101c7578063997664d7146101f2576100dd565b806311ce023d146100e257806314b6ca961461010d57806328fd319814610136575b600080fd5b3480156100ee57600080fd5b506100f7610327565b604051610104919061166b565b60405180910390f35b34801561011957600080fd5b50610134600480360381019061012f9190611422565b61032d565b005b34801561014257600080fd5b5061015d600480360381019061015891906113f5565b6105ec565b60405161016a919061166b565b60405180910390f35b34801561017f57600080fd5b5061019a600480360381019061019591906114e9565b610706565b005b3480156101a857600080fd5b506101b1610770565b6040516101be919061166b565b60405180910390f35b3480156101d357600080fd5b506101dc610776565b6040516101e9919061166b565b60405180910390f35b3480156101fe57600080fd5b5061020761077c565b604051610214919061166b565b60405180910390f35b34801561022957600080fd5b50610244600480360381019061023f91906113f5565b610782565b60405161025393929190611686565b60405180910390f35b6102646107ac565b005b34801561027257600080fd5b5061027b610b9c565b604051610288919061166b565b60405180910390f35b34801561029d57600080fd5b506102a6610ba2565b6040516102b3919061166b565b60405180910390f35b3480156102c857600080fd5b506102d1610ba8565b005b3480156102df57600080fd5b506102fa60048036038101906102f5919061148f565b610bb3565b005b34801561030857600080fd5b50610311610d47565b60405161031e919061166b565b60405180910390f35b600c5481565b60008054906101000a900473ffffffffffffffffffffffffffffffffffffffff1673ffffffffffffffffffffffffffffffffffffffff163373ffffffffffffffffffffffffffffffffffffffff161461038557600080fd5b6000600760008473ffffffffffffffffffffffffffffffffffffffff1673ffffffffffffffffffffffffffffffffffffffff1681526020019081526020016000206000015411156103da576103d982610d4d565b5b60008111801561042c57506000600760008473ffffffffffffffffffffffffffffffffffffffff1673ffffffffffffffffffffffffffffffffffffffff16815260200190815260200160002060000154145b1561043f5761043a82610ff4565b6104a1565b60008114801561049157506000600760008473ffffffffffffffffffffffffffffffffffffffff1673ffffffffffffffffffffffffffffffffffffffff16815260200190815260200160002060000154115b156104a05761049f826110a3565b5b5b61050a816104fc600760008673ffffffffffffffffffffffffffffffffffffffff1673ffffffffffffffffffffffffffffffffffffffff168152602001908152602001600020600001546008546112aa90919063ffffffff16565b6112c090919063ffffffff16565b60088190555080600760008473ffffffffffffffffffffffffffffffffffffffff1673ffffffffffffffffffffffffffffffffffffffff168152602001908152602001600020600001819055506105a2600760008473ffffffffffffffffffffffffffffffffffffffff1673ffffffffffffffffffffffffffffffffffffffff168152602001908152602001600020600001546112d6565b600760008473ffffffffffffffffffffffffffffffffffffffff1673ffffffffffffffffffffffffffffffffffffffff168152602001908152602001600020600101819055505050565b600080600760008473ffffffffffffffffffffffffffffffffffffffff1673ffffffffffffffffffffffffffffffffffffffff1681526020019081526020016000206000015414156106415760009050610701565b600061068e600760008573ffffffffffffffffffffffffffffffffffffffff1673ffffffffffffffffffffffffffffffffffffffff168152602001908152602001600020600001546112d6565b90506000600760008573ffffffffffffffffffffffffffffffffffffffff1673ffffffffffffffffffffffffffffffffffffffff1681526020019081526020016000206001015490508082116106e957600092505050610701565b6106fc81836112aa90919063ffffffff16565b925050505b919050565b60008054906101000a900473ffffffffffffffffffffffffffffffffffffffff1673ffffffffffffffffffffffffffffffffffffffff163373ffffffffffffffffffffffffffffffffffffffff161461075e57600080fd5b81600d8190555080600e819055505050565b60085481565b600e5481565b60095481565b60076020528060005260406000206000915090508060000154908060010154908060020154905083565b60008054906101000a900473ffffffffffffffffffffffffffffffffffffffff1673ffffffffffffffffffffffffffffffffffffffff163373ffffffffffffffffffffffffffffffffffffffff161461080457600080fd5b6000600160009054906101000a900473ffffffffffffffffffffffffffffffffffffffff1673ffffffffffffffffffffffffffffffffffffffff166370a08231306040518263ffffffff1660e01b815260040161086191906115db565b60206040518083038186803b15801561087957600080fd5b505afa15801561088d573d6000803e3d6000fd5b505050506040513d601f19601f820116820180604052508101906108b191906114bc565b90506000600267ffffffffffffffff8111156108d0576108cf61196a565b5b6040519080825280602002602001820160405280156108fe5781602001602082028036833780820191505090505b509050600260009054906101000a900473ffffffffffffffffffffffffffffffffffffffff16816000815181106109385761093761193b565b5b602002602001019073ffffffffffffffffffffffffffffffffffffffff16908173ffffffffffffffffffffffffffffffffffffffff1681525050600160009054906101000a900473ffffffffffffffffffffffffffffffffffffffff16816001815181106109a9576109a861193b565b5b602002602001019073ffffffffffffffffffffffffffffffffffffffff16908173ffffffffffffffffffffffffffffffffffffffff1681525050600360009054906101000a900473ffffffffffffffffffffffffffffffffffffffff1673ffffffffffffffffffffffffffffffffffffffff1663b6f9de953460008430426040518663ffffffff1660e01b8152600401610a46949392919061161f565b6000604051808303818588803b158015610a5f57600080fd5b505af1158015610a73573d6000803e3d6000fd5b50505050506000610b3783600160009054906101000a900473ffffffffffffffffffffffffffffffffffffffff1673ffffffffffffffffffffffffffffffffffffffff166370a08231306040518263ffffffff1660e01b8152600401610ad991906115db565b60206040518083038186803b158015610af157600080fd5b505afa158015610b05573d6000803e3d6000fd5b505050506040513d601f19601f82011682018060405250810190610b2991906114bc565b6112aa90919063ffffffff16565b9050610b4e816009546112c090919063ffffffff16565b600981905550610b91610b80600854610b7284600c5461130890919063ffffffff16565b61131e90919063ffffffff16565b600b546112c090919063ffffffff16565b600b81905550505050565b600b5481565b600a5481565b610bb133610d4d565b565b60008054906101000a900473ffffffffffffffffffffffffffffffffffffffff1673ffffffffffffffffffffffffffffffffffffffff163373ffffffffffffffffffffffffffffffffffffffff1614610c0b57600080fd5b600060048054905090506000811415610c245750610d44565b6000805a905060005b8483108015610c3b57508381105b15610d3f5783600f5410610c52576000600f819055505b610c9b6004600f5481548110610c6b57610c6a61193b565b5b9060005260206000200160009054906101000a900473ffffffffffffffffffffffffffffffffffffffff16611334565b15610cea57610ce96004600f5481548110610cb957610cb861193b565b5b9060005260206000200160009054906101000a900473ffffffffffffffffffffffffffffffffffffffff16610d4d565b5b610d0f610d005a846112aa90919063ffffffff16565b846112c090919063ffffffff16565b92505a9150600f6000815480929190610d2790611865565b91905055508080610d3790611865565b915050610c2d565b505050505b50565b600d5481565b6000600760008373ffffffffffffffffffffffffffffffffffffffff1673ffffffffffffffffffffffffffffffffffffffff168152602001908152602001600020600001541415610d9d57610ff1565b6000610da8826105ec565b90506000811115610fef57610dc881600a546112c090919063ffffffff16565b600a81905550600160009054906101000a900473ffffffffffffffffffffffffffffffffffffffff1673ffffffffffffffffffffffffffffffffffffffff1663a9059cbb83836040518363ffffffff1660e01b8152600401610e2b9291906115f6565b602060405180830381600087803b158015610e4557600080fd5b505af1158015610e59573d6000803e3d6000fd5b505050506040513d601f19601f82011682018060405250810190610e7d9190611462565b5042600660008473ffffffffffffffffffffffffffffffffffffffff1673ffffffffffffffffffffffffffffffffffffffff16815260200190815260200160002081905550610f1781600760008573ffffffffffffffffffffffffffffffffffffffff1673ffffffffffffffffffffffffffffffffffffffff168152602001908152602001600020600201546112c090919063ffffffff16565b600760008473ffffffffffffffffffffffffffffffffffffffff1673ffffffffffffffffffffffffffffffffffffffff16815260200190815260200160002060020181905550610fa8600760008473ffffffffffffffffffffffffffffffffffffffff1673ffffffffffffffffffffffffffffffffffffffff168152602001908152602001600020600001546112d6565b600760008473ffffffffffffffffffffffffffffffffffffffff1673ffffffffffffffffffffffffffffffffffffffff168152602001908152602001600020600101819055505b505b50565b600480549050600560008373ffffffffffffffffffffffffffffffffffffffff1673ffffffffffffffffffffffffffffffffffffffff168152602001908152602001600020819055506004819080600181540180825580915050600190039060005260206000200160009091909190916101000a81548173ffffffffffffffffffffffffffffffffffffffff021916908373ffffffffffffffffffffffffffffffffffffffff16021790555050565b600460016004805490506110b791906117d7565b815481106110c8576110c761193b565b5b9060005260206000200160009054906101000a900473ffffffffffffffffffffffffffffffffffffffff166004600560008473ffffffffffffffffffffffffffffffffffffffff1673ffffffffffffffffffffffffffffffffffffffff16815260200190815260200160002054815481106111465761114561193b565b5b9060005260206000200160006101000a81548173ffffffffffffffffffffffffffffffffffffffff021916908373ffffffffffffffffffffffffffffffffffffffff160217905550600560008273ffffffffffffffffffffffffffffffffffffffff1673ffffffffffffffffffffffffffffffffffffffff1681526020019081526020016000205460056000600460016004805490506111e691906117d7565b815481106111f7576111f661193b565b5b9060005260206000200160009054906101000a900473ffffffffffffffffffffffffffffffffffffffff1673ffffffffffffffffffffffffffffffffffffffff1673ffffffffffffffffffffffffffffffffffffffff1681526020019081526020016000208190555060048054806112725761127161190c565b5b6001900381819060005260206000200160006101000a81549073ffffffffffffffffffffffffffffffffffffffff0219169055905550565b600081836112b891906117d7565b905092915050565b600081836112ce91906116f6565b905092915050565b6000611301600c546112f3600b548561130890919063ffffffff16565b61131e90919063ffffffff16565b9050919050565b60008183611316919061177d565b905092915050565b6000818361132c919061174c565b905092915050565b600042600d54600660008573ffffffffffffffffffffffffffffffffffffffff1673ffffffffffffffffffffffffffffffffffffffff1681526020019081526020016000205461138491906116f6565b10801561139a5750600e54611398836105ec565b115b9050919050565b6000813590506113b08161199e565b92915050565b6000815190506113c5816119b5565b92915050565b6000813590506113da816119cc565b92915050565b6000815190506113ef816119cc565b92915050565b60006020828403121561140b5761140a611999565b5b6000611419848285016113a1565b91505092915050565b6000806040838503121561143957611438611999565b5b6000611447858286016113a1565b9250506020611458858286016113cb565b9150509250929050565b60006020828403121561147857611477611999565b5b6000611486848285016113b6565b91505092915050565b6000602082840312156114a5576114a4611999565b5b60006114b3848285016113cb565b91505092915050565b6000602082840312156114d2576114d1611999565b5b60006114e0848285016113e0565b91505092915050565b60008060408385031215611500576114ff611999565b5b600061150e858286016113cb565b925050602061151f858286016113cb565b9150509250929050565b60006115358383611541565b60208301905092915050565b61154a8161180b565b82525050565b6115598161180b565b82525050565b600061156a826116cd565b61157481856116e5565b935061157f836116bd565b8060005b838110156115b05781516115978882611529565b97506115a2836116d8565b925050600181019050611583565b5085935050505092915050565b6115c681611853565b82525050565b6115d581611849565b82525050565b60006020820190506115f06000830184611550565b92915050565b600060408201905061160b6000830185611550565b61161860208301846115cc565b9392505050565b600060808201905061163460008301876115bd565b8181036020830152611646818661155f565b90506116556040830185611550565b61166260608301846115cc565b95945050505050565b600060208201905061168060008301846115cc565b92915050565b600060608201905061169b60008301866115cc565b6116a860208301856115cc565b6116b560408301846115cc565b949350505050565b6000819050602082019050919050565b600081519050919050565b6000602082019050919050565b600082825260208201905092915050565b600061170182611849565b915061170c83611849565b9250827fffffffffffffffffffffffffffffffffffffffffffffffffffffffffffffffff03821115611741576117406118ae565b5b828201905092915050565b600061175782611849565b915061176283611849565b925082611772576117716118dd565b5b828204905092915050565b600061178882611849565b915061179383611849565b9250817fffffffffffffffffffffffffffffffffffffffffffffffffffffffffffffffff04831182151516156117cc576117cb6118ae565b5b828202905092915050565b60006117e282611849565b91506117ed83611849565b925082821015611800576117ff6118ae565b5b828203905092915050565b600061181682611829565b9050919050565b60008115159050919050565b600073ffffffffffffffffffffffffffffffffffffffff82169050919050565b6000819050919050565b600061185e82611849565b9050919050565b600061187082611849565b91507fffffffffffffffffffffffffffffffffffffffffffffffffffffffffffffffff8214156118a3576118a26118ae565b5b600182019050919050565b7f4e487b7100000000000000000000000000000000000000000000000000000000600052601160045260246000fd5b7f4e487b7100000000000000000000000000000000000000000000000000000000600052601260045260246000fd5b7f4e487b7100000000000000000000000000000000000000000000000000000000600052603160045260246000fd5b7f4e487b7100000000000000000000000000000000000000000000000000000000600052603260045260246000fd5b7f4e487b7100000000000000000000000000000000000000000000000000000000600052604160045260246000fd5b600080fd5b6119a78161180b565b81146119b257600080fd5b50565b6119be8161181d565b81146119c957600080fd5b50565b6119d581611849565b81146119e057600080fd5b5056fea2646970667358221220e20640c4c1ae67c377ce5654c442bb32b42de8590289fd83620bb0408c30f39864736f6c63430008070033",
  "immutableReferences": {},
  "source": "// SPDX-License-Identifier: MIT\r\npragma solidity ^0.8.7;\r\n\r\nimport \"@openzeppelin/contracts/token/ERC20/IERC20.sol\";\r\nimport \"@openzeppelin/contracts/utils/math/SafeMath.sol\";\r\n\r\nimport \"./interfaces/IUniswapV2Factory.sol\";\r\nimport \"./interfaces/IUniswapV2Router02.sol\";\r\n\r\nimport \"./helpers/Auth.sol\";\r\nimport \"./helpers/DividendDistributor.sol\";\r\n\r\ncontract Void is Auth {\r\n\r\n  using SafeMath for uint256;\r\n\r\n  event Transfer(address indexed from, address indexed to, uint256 value);\r\n  event Approval(address indexed owner, address indexed spender, uint256 value);\r\n  event AutoLiquify(uint256 _amountFTMLiquidity, uint256 _amountToLiquify);\r\n  event BuybackMultiplierActive(uint256 _duration);\r\n\r\n  string constant _name =  \"Void\";\r\n  string constant _symbol = \"VOID\";        \r\n  uint8 constant _decimals = 9;\r\n\r\n  uint256 _totalSupply = 1_000_000_000_000_000 * (10 ** _decimals);\r\n  \r\n  mapping (address => uint256) _balances;\r\n  mapping (address => mapping (address => uint256)) _allowances;\r\n\r\n  uint256 public constant MASK = type(uint128).max;\r\n\r\n  address DEAD = 0x000000000000000000000000000000000000dEaD;\r\n  address ZERO = address(0);\r\n\r\n  address public EP = address(0); \r\n  address public WFTM = 0x21be370D5312f44cB42ce377BC9b8a0cEF1A4C83;\r\n  \r\n  IUniswapV2Router02 public router;\r\n  address public routerAddress; \r\n  address public pair;\r\n\r\n  DividendDistributor distributor;\r\n  address public distributorAddress;\r\n\r\n  uint256 distributorGas = 500000;\r\n\r\n  // 17% Fee in total; \r\n  uint256 totalFee = 1700;\r\n  uint256 feeDenominator = 10000;\r\n  \r\n  // 3% goes to providing liquidity to the pair; \r\n  uint256 liquidityFee = 300;\r\n  // 5% Goes to the reflections for token holders; \r\n  uint256 reflectionFee = 500;\r\n  // 5% Goes to the marketing team;\r\n  uint256 marketingFee = 500;\r\n  // 2% Goes to the dev team; \r\n  uint256 devFee = 200;\r\n\r\n  uint256 buybackFee = 0;\r\n\r\n  address public autoLiquidityReceiver= address(0); \r\n  address public marketingFeeReceiver= address(0);\r\n  address public developerFeeReciver = address(0); \r\n\r\n\r\n  uint256 targetLiquidity = 5;\r\n  uint256 targetLiquidityDenominator = 100;\r\n\r\n  uint256 public _maxTxAmount = _totalSupply.div(100); // 1%\r\n  uint256 public _maxWallet = _totalSupply.div(40); // 2.5%\r\n\r\n  mapping (address => bool) isFeeExempt;        \r\n  mapping (address => bool) isTxLimitExempt;    \r\n  mapping (address => bool) isDividendExempt;   \r\n  mapping (address => bool) public isFree;     \r\n\r\n  uint256 public launchedAt;\r\n  uint256 public launchedAtTimestamp;\r\n\r\n  uint256 buybackMultiplierNumerator = 200;\r\n  uint256 buybackMultiplierDenominator = 100;\r\n  uint256 buybackMultiplierLength = 30 minutes;\r\n\r\n  uint256 buybackMultiplierTriggeredAt;\r\n\r\n  bool public autoBuybackEnabled = false;\r\n\r\n  mapping (address => bool) buyBacker;\r\n\r\n  uint256 autoBuybackCap;\r\n  uint256 autoBuybackAccumulator;\r\n  uint256 autoBuybackAmount;\r\n  uint256 autoBuybackBlockPeriod;\r\n  uint256 autoBuybackBlockLast;\r\n\r\n  bool public swapEnabled = true;\r\n  uint256 public swapThreshold = _totalSupply / 1000; // 0.1%;\r\n\r\n  bool inSwap;\r\n\r\n  constructor (\r\n    address _router,\r\n    address _marketer,\r\n    address _ep\r\n  ) {\r\n    EP = _ep;\r\n\r\n    autoLiquidityReceiver= msg.sender; \r\n    marketingFeeReceiver= _marketer;\r\n    developerFeeReciver = msg.sender; \r\n\r\n    routerAddress = _router;\r\n    router = IUniswapV2Router02(_router);\r\n    \r\n\r\n    pair = IUniswapV2Factory(router.factory()).createPair(WFTM, address(this));\r\n\r\n    _allowances[address(this)][address(_router)] = type(uint256).max;\r\n\r\n    distributor = new DividendDistributor(_router);\r\n    distributorAddress = address(distributor);\r\n\r\n    isFeeExempt[msg.sender] = true;\r\n    isTxLimitExempt[msg.sender] = true;\r\n    isDividendExempt[pair] = true;\r\n    isDividendExempt[address(this)] = true;\r\n    isDividendExempt[DEAD] = true;\r\n    buyBacker[msg.sender] = true;\r\n\r\n    autoLiquidityReceiver = msg.sender;\r\n\r\n    approve(_router, type(uint256).max);\r\n    approve(address(pair), type(uint256).max);\r\n    \r\n    _balances[msg.sender] = _totalSupply;\r\n\r\n    emit Transfer(address(0), msg.sender, _totalSupply);\r\n  }\r\n\r\n  /** ======= PUBLIC VIEW FUNCTIONS ======= */\r\n\r\n  function getTotalFee() public view returns (uint256) {\r\n    return totalFee;\r\n  }\r\n\r\n  function getCirculatingSupply() public view returns (uint256) {\r\n      return _totalSupply.sub(balanceOf(DEAD)).sub(balanceOf(ZERO));\r\n  }\r\n\r\n  function getLiquidityBacking(uint256 accuracy) public view returns (uint256) {\r\n      return accuracy.mul(balanceOf(pair).mul(2)).div(getCirculatingSupply());\r\n  }\r\n\r\n  function isOverLiquified(uint256 target, uint256 accuracy) public view returns (bool) {\r\n      return getLiquidityBacking(accuracy) > target;\r\n  }\r\n\r\n  /** ======= ERC20 FUNCTIONS ======= */\r\n\r\n  function totalSupply() external view returns (uint256) { \r\n    return _totalSupply; \r\n  }\r\n\r\n  function decimals() external pure returns (uint8) { \r\n    return _decimals; \r\n  }\r\n\r\n  function symbol() external pure returns (string memory) { \r\n    return _symbol; \r\n  }\r\n\r\n  function name() external pure  returns (string memory) { \r\n    return _name; \r\n  }\r\n\r\n  function balanceOf(address account) public view returns (uint256) { \r\n    return _balances[account]; \r\n  }\r\n\r\n  function allowance(address holder, address spender) public view returns (uint256) { \r\n    return _allowances[holder][spender]; \r\n  }\r\n\r\n  function approve(address spender, uint256 amount) public returns (bool) {\r\n    _allowances[msg.sender][spender] = amount;\r\n    emit Approval(msg.sender, spender, amount);\r\n    return true;\r\n  }\r\n\r\n  function approveMax(address spender) external returns (bool) {\r\n      return approve(spender, _totalSupply);\r\n  }\r\n\r\n  function transfer(address recipient, uint256 amount) external returns (bool) {\r\n    return _transferFrom(msg.sender, recipient, amount);\r\n  }\r\n\r\n  function transferFrom(address sender, address recipient, uint256 amount) external returns (bool) {\r\n    if(_allowances[sender][msg.sender] != _totalSupply){\r\n        _allowances[sender][msg.sender] = _allowances[sender][msg.sender].sub(amount, \"Insufficient Allowance\");\r\n    }\r\n    return _transferFrom(sender, recipient, amount);\r\n  }\r\n\r\n\r\n  function _transferFrom(address sender, address recipient, uint256 amount) internal returns (bool) {\r\n    // If in swap just do a basic transfer. Same as normal ERC20 transferFrom function;\r\n    if(inSwap) { \r\n        return _basicTransfer(sender, recipient, amount); \r\n    }\r\n      \r\n    bool isSell = recipient == pair || recipient == routerAddress;\r\n    \r\n    checkTxLimit(sender, amount);\r\n    \r\n    // Max wallet check excluding pair and router\r\n    if (!isSell && !isFree[recipient]){\r\n        require((_balances[recipient] + amount) < _maxWallet, \"Max wallet has been triggered\");\r\n    }\r\n    \r\n    // No swapping on buy and tx\r\n    if (isSell) {\r\n        if(shouldSwapBack()){ \r\n            swapBack(); \r\n        }\r\n        if(shouldAutoBuyback()){ \r\n            triggerAutoBuyback(); \r\n        }\r\n    }\r\n\r\n    _balances[sender] = _balances[sender].sub(amount, \"Insufficient Balance\");\r\n\r\n    uint256 amountReceived = shouldTakeFee(sender) ? takeFee(sender, amount) : amount;\r\n\r\n    _balances[recipient] = _balances[recipient].add(amountReceived);\r\n\r\n    if(!isDividendExempt[sender]){ try distributor.setShare(sender, _balances[sender]) {} catch {} }\r\n    if(!isDividendExempt[recipient]){ try distributor.setShare(recipient, _balances[recipient]) {} catch {} }\r\n\r\n    try distributor.process(distributorGas) {} catch {}\r\n\r\n    emit Transfer(sender, recipient, amountReceived);\r\n    return true;\r\n  }\r\n\r\n  function _basicTransfer(address sender, address recipient, uint256 amount) internal returns (bool) {\r\n    _balances[sender] = _balances[sender].sub(amount, \"Insufficient Balance\");\r\n    _balances[recipient] = _balances[recipient].add(amount);\r\n    return true;\r\n  }\r\n\r\n  /** ======= INTERNAL VIEW FUNCTIONS ======= */\r\n \r\n  function checkTxLimit(address _sender, uint256 _amount) internal view {\r\n    require(_amount <= _maxTxAmount || isTxLimitExempt[_sender], \"TX Limit Exceeded\");\r\n  }\r\n\r\n  function shouldTakeFee(address _sender) internal view returns (bool) {\r\n    return !isFeeExempt[_sender];\r\n  }\r\n\r\n  function shouldSwapBack() internal view returns (bool) {\r\n    return \r\n      msg.sender != pair\r\n        && \r\n      !inSwap\r\n        && \r\n      swapEnabled\r\n        && \r\n      _balances[address(this)] >= swapThreshold;\r\n  }\r\n\r\n  function shouldAutoBuyback() internal view returns (bool) {\r\n    return \r\n      msg.sender != pair\r\n        && \r\n      !inSwap\r\n        && \r\n      autoBuybackEnabled\r\n        && \r\n      autoBuybackBlockLast + autoBuybackBlockPeriod <= block.number // After N blocks from last buyback\r\n        && \r\n      address(this).balance >= autoBuybackAmount;\r\n  }\r\n\r\n  function launched() internal view returns (bool) {\r\n    return launchedAt != 0;\r\n  }\r\n\r\n  /** ======= INTERNAL FUNCTIONS ======= */\r\n\r\n  function takeFee(address _sender, uint256 _amount) internal returns (uint256) {\r\n    // Calculate the fee amount; \r\n    uint256 feeAmount = _amount.mul(totalFee).div(feeDenominator);\r\n\r\n    // Add the fee to the contract balance; \r\n    _balances[address(this)] = _balances[address(this)].add(feeAmount);\r\n\r\n    emit Transfer(_sender, address(this), feeAmount);\r\n\r\n    return _amount.sub(feeAmount);\r\n  }\r\n\r\n  function triggerAutoBuyback() internal {\r\n    // Buy tokens and send them to burn address; \r\n    buyTokens(autoBuybackAmount, DEAD);\r\n    // Update params: \r\n    autoBuybackBlockLast = block.number;\r\n    autoBuybackAccumulator = autoBuybackAccumulator.add(autoBuybackAmount);\r\n    // Set autoBuybackEnabled if needed;\r\n    if(autoBuybackAccumulator > autoBuybackCap){ \r\n      autoBuybackEnabled = false; \r\n    }\r\n  }\r\n\r\n  function swapBack() internal swapping {\r\n\r\n    uint256 dynamicLiquidityFee = isOverLiquified(targetLiquidity, targetLiquidityDenominator) ? 0 : liquidityFee;\r\n\r\n    uint256 amountToLiquify = swapThreshold.mul(dynamicLiquidityFee).div(totalFee).div(2);\r\n\r\n    uint256 amountToSwap = swapThreshold.sub(amountToLiquify);\r\n\r\n    uint256 balanceBefore = address(this).balance;\r\n\r\n    address[] memory path = new address[](2);\r\n      path[0] = address(this);\r\n      path[1] = WFTM;\r\n\r\n    router.swapExactTokensForETHSupportingFeeOnTransferTokens(\r\n        amountToSwap,\r\n        0,\r\n        path,\r\n        address(this),\r\n        block.timestamp\r\n    );\r\n    uint256 amountFTM = address(this).balance.sub(balanceBefore);\r\n\r\n    uint256 totalFTMFee = totalFee.sub(dynamicLiquidityFee.div(2));\r\n\r\n    uint256 amountFTMLiquidity = amountFTM.mul(dynamicLiquidityFee).div(totalFTMFee).div(2);\r\n\r\n    // Calculate the amount used for reflection fee's; \r\n    uint256 amountFTMReflection = amountFTM.mul(reflectionFee).div(totalFTMFee);\r\n    // Calculate the amount used for marketing fee's: \r\n    uint256 amountFTMMarketing = amountFTM.mul(marketingFee).div(totalFTMFee);\r\n    // Calculate the amount used for dev fee's: \r\n    uint256 amountFTMDev = amountFTM.mul(devFee).div(totalFTMFee);\r\n\r\n    // Send the dividend fee's to the distributor; \r\n    distributor.deposit{value: amountFTMReflection}();\r\n\r\n    // Send the marketing fee's; \r\n    payable(marketingFeeReceiver).transfer(amountFTMMarketing);\r\n    // Send the dev fee's; \r\n    payable(developerFeeReciver).transfer(amountFTMDev);\r\n    \r\n    // Handle the liquidity adding; \r\n    if(amountToLiquify > 0){\r\n        router.addLiquidityETH{value: amountFTMLiquidity}(\r\n            address(this),\r\n            amountToLiquify,\r\n            0,\r\n            0,\r\n            autoLiquidityReceiver,\r\n            block.timestamp\r\n        );\r\n        emit AutoLiquify(amountFTMLiquidity, amountToLiquify);\r\n    }\r\n  }\r\n\r\n  function buyTokens(uint256 _amount, address _to) internal swapping {\r\n    address[] memory path = new address[](2);\r\n    path[0] = WFTM;\r\n    path[1] = address(this);\r\n\r\n    router.swapExactETHForTokensSupportingFeeOnTransferTokens{value: _amount}(\r\n        0,\r\n        path,\r\n        _to,\r\n        block.timestamp\r\n    );\r\n  }\r\n\r\n  /** ======= AUTHORIZED ONLY FUNCTIONS ======= */\r\n\r\n  function clearBuybackMultiplier() external authorized {\r\n    buybackMultiplierTriggeredAt = 0;\r\n  }\r\n\r\n  function launch() public authorized {\r\n    require(launchedAt == 0, \"Already launched\");\r\n    launchedAt = block.number;\r\n    launchedAtTimestamp = block.timestamp;\r\n  }\r\n  \r\n  function setAutoBuybackSettings(bool _enabled, uint256 _cap, uint256 _amount, uint256 _period) external authorized {\r\n    autoBuybackEnabled = _enabled;\r\n    autoBuybackCap = _cap;\r\n    autoBuybackAccumulator = 0;\r\n    autoBuybackAmount = _amount;\r\n    autoBuybackBlockPeriod = _period;\r\n    autoBuybackBlockLast = block.number;\r\n  }\r\n\r\n  function setBuybackMultiplierSettings(uint256 numerator, uint256 denominator, uint256 length) external authorized {\r\n    require(numerator / denominator <= 2 && numerator > denominator);\r\n    buybackMultiplierNumerator = numerator;\r\n    buybackMultiplierDenominator = denominator;\r\n    buybackMultiplierLength = length;\r\n  }\r\n\r\n  function setMaxWallet(uint256 amount) external authorized {\r\n    require(amount >= _totalSupply / 1000);\r\n    _maxWallet = amount;\r\n  }\r\n\r\n  function setTxLimit(uint256 amount) external authorized {\r\n      require(amount >= _totalSupply / 1000);\r\n      _maxTxAmount = amount;\r\n  }\r\n\r\n  function setIsDividendExempt(address holder, bool exempt) external authorized {\r\n    require(holder != address(this) && holder != pair);\r\n    isDividendExempt[holder] = exempt;\r\n    if(exempt){\r\n        distributor.setShare(holder, 0);\r\n    }else{\r\n        distributor.setShare(holder, _balances[holder]);\r\n    }\r\n  }\r\n\r\n  function setIsFeeExempt(address holder, bool exempt) external authorized {\r\n    isFeeExempt[holder] = exempt;\r\n  }\r\n\r\n  function setIsTxLimitExempt(address holder, bool exempt) external authorized {\r\n    isTxLimitExempt[holder] = exempt;\r\n  }\r\n  \r\n  function setFees(\r\n    uint256 _liquidityFee, \r\n    uint256 _buybackFee, \r\n    uint256 _reflectionFee, \r\n    uint256 _marketingFee, \r\n    uint256 _feeDenominator\r\n  ) external authorized {\r\n    liquidityFee = _liquidityFee;\r\n    buybackFee = _buybackFee;\r\n    reflectionFee = _reflectionFee;\r\n    marketingFee = _marketingFee;\r\n    totalFee = _liquidityFee.add(_buybackFee).add(_reflectionFee).add(_marketingFee);\r\n    feeDenominator = _feeDenominator;\r\n    require(totalFee < feeDenominator/4);\r\n  }\r\n\r\n  function setFeeReceivers(address _autoLiquidityReceiver, address _marketingFeeReceiver) external authorized {\r\n      autoLiquidityReceiver = _autoLiquidityReceiver;\r\n      marketingFeeReceiver = _marketingFeeReceiver;\r\n  }\r\n\r\n  function setSwapBackSettings(bool _enabled, uint256 _amount) external authorized {\r\n      swapEnabled = _enabled;\r\n      swapThreshold = _amount;\r\n  }\r\n\r\n  function setTargetLiquidity(uint256 _target, uint256 _denominator) external authorized {\r\n      targetLiquidity = _target;\r\n      targetLiquidityDenominator = _denominator;\r\n  }\r\n\r\n  function setDistributionCriteria(uint256 _minPeriod, uint256 _minDistribution) external authorized {\r\n      distributor.setDistributionCriteria(_minPeriod, _minDistribution);\r\n  }\r\n\r\n  function setDistributorSettings(uint256 gas) external authorized {\r\n      require(gas < 750000);\r\n      distributorGas = gas;\r\n  }\r\n\r\n  /** ======= OWNER ONLY FUNCTION ======= */\r\n\r\n  function Collect() external onlyOwner {\r\n      uint256 balance = address(this).balance;\r\n      payable(msg.sender).transfer(balance);\r\n  }\r\n\r\n  function setFree(address holder) public onlyOwner {\r\n    isFree[holder] = true;\r\n  }\r\n  \r\n  function unSetFree(address holder) public onlyOwner {\r\n    isFree[holder] = false;\r\n  }\r\n  \r\n  function checkFree(address holder) public view onlyOwner returns(bool){\r\n    return isFree[holder];\r\n  }\r\n\r\n  /** ======= MODIFIERS ======= */\r\n\r\n  modifier swapping() { \r\n    inSwap = true; \r\n    _; \r\n    inSwap = false; \r\n  }\r\n\r\n  modifier onlyBuybacker() { \r\n    require(buyBacker[msg.sender] == true, \"\");\r\n    _; \r\n  }\r\n\r\n  // Make contract able to recive FTM; \r\n  receive() external payable {}\r\n}",
  "sourcePath": "G:\\Projects\\KavanSmartContract\\contracts\\Void.sol",
  "compiler": {
    "name": "solc",
    "version": "0.8.7+commit.e28d00a7.Emscripten.clang"
  },
  "schemaVersion": "3.4.4",
  "updatedAt": "2022-02-01T11:55:23.405Z",
  "networkType": "ethereum",
  "devdoc": {
    "kind": "dev",
    "methods": {
      "owner()": {
        "details": "Returns the address of the current owner."
      },
      "renounceOwnership()": {
        "details": "Leaves the contract without owner. It will not be possible to call `onlyOwner` functions anymore. Can only be called by the current owner. NOTE: Renouncing ownership will leave the contract without an owner, thereby removing any functionality that is only available to the owner."
      },
      "transferOwnership(address)": {
        "details": "Transfers ownership of the contract to a new account (`newOwner`). Can only be called by the current owner."
      }
    },
    "version": 1
  },
  "userdoc": {
    "kind": "user",
    "methods": {
      "Collect()": {
        "notice": "======= OWNER ONLY FUNCTION ======= "
      },
      "authorize(address)": {
        "notice": "Authorize address. Owner only"
      },
      "clearBuybackMultiplier()": {
        "notice": "======= AUTHORIZED ONLY FUNCTIONS ======= "
      },
      "getTotalFee()": {
        "notice": "======= PUBLIC VIEW FUNCTIONS ======= "
      },
      "isAuthorized(address)": {
        "notice": "Return address' authorization status"
      },
      "totalSupply()": {
        "notice": "======= ERC20 FUNCTIONS ======= "
      },
      "unauthorize(address)": {
        "notice": "Remove address' authorization. Owner only"
      }
    },
    "version": 1
  }
}